:020000040800F2
:10000000A0270020450100084D010008B740000866
:1000100051010008530100085501000800000000CC
:100020000000000000000000000000005701000870
:1000300059010008000000003F400008BF10000800
:100040005F0100085F0100085F0100085F01000810
:100050005F0100085F0100085F0100085F01000800
:100060005F0100085F0100085F0100085F010008F0
:100070005F0100085F0100085F0100085F010008E0
:100080005F0100085F0100085F0100085F010008D0
:100090005F0100085F0100085F0100085F010008C0
:1000A0005F0100085F0100085F0100085F010008B0
:1000B0005F0100085F0100085F0100085F010008A0
:1000C0005F0100085F0100085F0100085F01000890
:1000D0005F0100085F0100085F0100085F01000880
:1000E0005F0100085F0100085F0100085F01000870
:1000F0005F0100085F0100085F0100085F01000860
:100100005F0100085F0100085F0100085F0100084F
:100110005F0100085F0100085F0100085F0100083F
:100120005F0100085F0100085F0100085F0100082F
:10013000DFF80CD004F018F90048004763150008F8
:10014000A02700200648804706480047FEE7FEE754
:10015000FEE7FEE7FEE7FEE7FEE7FEE7FEE7FEE777
:1001600047020008310100080CB500200190009002
:100170006C48006840F480306A49086000BF6948F4
:10018000006800F4003000900198401C0190009835
:1001900018B90198B0F5A06FF1D16248006800F479
:1001A000003010B10120009001E000200090009884
:1001B000012843D15C48006840F010005A490860AB
:1001C0000846006820F0030008600846006840F018
:1001D0000200086053484068524948600846406839
:1001E00048600846406840F48060486008464068BF
:1001F00020F47C1048600846406840F4E8104860ED
:100200000846006840F08070086000BF45480068FC
:1002100000F000700028F9D04248406820F0030048
:10022000404948600846406840F00200486000BF0E
:100230003C48406800F00C000828F9D10CBD10B50E
:10024000FFF792FF10BD10B53648006840F001007E
:1002500034490860084640683449084031494860DC
:1002600008460068324908402E4908600846006880
:1002700020F4802008600846406820F4FE004860B2
:100280004FF41F008860FFF7DAFF4FF00060294944
:10029000086010BD10B5002100200022214B5B68D2
:1002A00003F00C0121B1042906D0082928D107E068
:1002B000214B224C236027E01F4B204C236023E07E
:1002C000184B5B6803F47010164B5B6803F48032C4
:1002D000022303EB904022B9194B4343174C236090
:1002E0000DE0104B5B6803F4003323B1144B434320
:1002F000124C236003E0104B4343104C236003E097
:100300000D4B0E4C236000BF00BF064B5B68C3F370
:1003100003130C4CE15C094B1B68CB40074C23607A
:1003200010BD000000100240002002400000FFF855
:10033000FFFFF6FE08ED00E000127A00000000204A
:1003400000093D000400002031490143314A116099
:10035000704770B5002100230F22C47804B32D4CE0
:10036000246804F4E064C4F5E064210AC1F10403E4
:10037000CA40447804FA03F1847814402143090107
:10038000254C0678A155047804F01F050124AC40E3
:1003900005786D11AD0005F1E025C5F8004109E0D3
:1003A000047804F01F050124AC401C4D067876113A
:1003B00045F8264070BD1A4A0A400243154B1B1FE0
:1003C0001A60704739B1134A121D12680243114B6B
:1003D0001B1D1A6006E00F4A121D126882430D4B66
:1003E0001B1D1A607047042808D14FF0E0210969ED
:1003F00041F004014FF0E022116107E04FF0E021ED
:10040000096921F004014FF0E022116170470000FA
:100410000000FA050CED00E000E400E080E100E0FF
:1004200080FFFF1F10B50446CC48844208D101214B
:10043000042000F02DFB0021042000F029FB46E001
:10044000C748844208D10121082000F021FB002187
:10045000082000F01DFB3AE0C248844208D1012187
:10046000102000F015FB0021102000F011FB2EE001
:10047000BD48844208D10121202000F009FB002161
:10048000202000F005FB22E0B848844208D1012179
:10049000402000F0FDFA0021402000F0F9FA16E0BB
:1004A000B348844208D10121802000F0F1FA0021F4
:1004B000802000F0EDFA0AE0AE48844207D1012125
:1004C000801500F0E5FA0021A01500F0E1FA10BD5A
:1004D00010B50121084600F0DBFA0021012000F0F0
:1004E000D7FA10BD2DE9F041024600250026002074
:1004F00000230024002791F803C00CF00F0591F8A9
:1005000003C00CF0100CBCF1000F03D091F802C036
:100510004CEA050591F800C0BCF1000F31D0146819
:1005200000202BE04FF0010C0CFA00F3B1F800C0F2
:100530000CEA03069E4220D183004FF00F0C0CFA08
:1005400003F7BC4305FA03FC4CEA040491F803C02A
:10055000BCF1280F06D14FF0010C0CFA00FCC2F8D8
:1005600014C00AE091F803C0BCF1480F05D14FF068
:10057000010C0CFA00FCC2F810C0401C0828D1D3B2
:100580001460B1F800C0BCF1FF0F34DD54680020E6
:100590002EE000F1080C4FF0010808FA0CF3B1F856
:1005A00000C00CEA03069E4221D183004FF00F0CDD
:1005B0000CFA03F7BC4305FA03FC4CEA040491F877
:1005C00003C0BCF1280F05D100F1080C08FA0CF8A3
:1005D000C2F8148091F803C0BCF1480F07D100F1B4
:1005E000080C4FF0010808FA0CF8C2F81080401C03
:1005F0000828CED35460BDE8F0814FF6FF7101802A
:10060000022181700421C170704702460020936866
:100610000B400BB1012000E00020704701468868C4
:1006200080B2704702460020D3680B400BB1012016
:1006300000E0002070470146C86880B27047016141
:100640007047416170470AB1016100E04161704744
:10065000C16070474FF480320A43826181618261D8
:1006600082698269704702460020434B18684FF642
:100670008073184040EA021008433F4B18607047EF
:100680003E49C8617047F0B50A46002300240021A6
:10069000002500F00046B6F1004F02D1364EF16958
:1006A00001E0354E7168C0F3034583B200F4401693
:1006B000B6F5401F08D121F070612F4E766826F004
:1006C00070662D4F7E6012E000F48016B6F5801F34
:1006D00006D1032606FA05F4A14341F0706106E055
:1006E000460D360103FA06F6B14341F0706122B1BE
:1006F000460D360103FA06F6314300F00046B6F126
:10070000004F02D11C4EF16101E01B4E7160F0BD43
:1007100030B500228B071C0F0F2303FA04F2164B8F
:1007200008338C1053F824309343134C08348D1045
:1007300044F8253023468C1053F824308C07240FBE
:1007400000FA04F423430C4C08348D1044F825308F
:1007500030BD0A49DC3108607047000000080140E4
:10076000000C01400010014000140140001801403D
:10077000001C014000200140000001400000204218
:10078000DF48006840F00100DD4908600846406825
:10079000DC490840DA49486008460068DA49084000
:1007A000D74908600846006820F4802008600846A1
:1007B000406820F4FE0048604FF41F0088607047D6
:1007C000CF49096821F48031CD4A1160114609688A
:1007D00021F480211160B0F5803F03D0B0F5802F67
:1007E0000ED106E0C649096841F48031C44A11605F
:1007F00007E0C349096841F4A021C14A116000E043
:1008000000BF00BF704710B5014600220023002042
:100810004A11012A02D1BA4C236806E0022A02D109
:10082000B74C236A01E0B64C636A01F01F02012451
:1008300094401C400CB1012000E0002010BD38B5F0
:10084000002000900024002500BF3120FFF7DBFFCF
:1008500005460098401C00900098B0F5A06F01D0AC
:10086000002DF2D03120FFF7CEFF08B1012400E0C7
:100870000024204638BD01460020A14A106820F01F
:10088000F80040EAC10010607047A0490860704756
:10089000024600209A4B586820F47C1042EA01037B
:1008A0001843974B5860704798490866704701464F
:1008B0000020934A506820F00300084350607047BE
:1008C0008F48406800F00C007047014600208C4AB9
:1008D000506820F0F0000843506070470146002047
:1008E000874A506820F4E060084350607047014632
:1008F0000020834A506820F4605040EAC1005060F4
:10090000704729B17E4A527A02437D4B5A7204E005
:100910007B4A527A82437A4B5A7270477B49D8316C
:100920000860704701460020754A506820F4404036
:100930000843506070470021714A20321170704A9C
:1009400082F82010012802D004280AD104E00121F5
:100950006B4A2032117005E00521694A203211707E
:1009600000E000BF00BF70476949086070476449F4
:10097000096A0143624A1162704765494439086057
:10098000704730B500210022002400235C4D6D68C3
:1009900005F00C0121B1042905D0082923D105E077
:1009A0005C4D056022E05B4D05601FE0544D6D68B5
:1009B00005F47012524D6D6805F48034022505EB84
:1009C00092421CB9544D554305600BE04C4D6D6887
:1009D00005F400351DB1504D5543056002E04D4D05
:1009E0005543056002E04B4D056000BF00BF444D1C
:1009F0006D6805F0F0010909484D6B5C0568DD4044
:100A000045603F4D6D6805F4E061090A434D6B5C3C
:100A10004568DD4085603A4D6D6805F46051C90A4E
:100A20003E4D6B5C4568DD40C560354D6D6805F435
:100A30004041890B3A4D6B5CC568B5FBF3F5056128
:100A400030BD29B12E4A526902432D4B5A6104E050
:100A50002B4A526982432A4B5A61704729B1284A6E
:100A600092690243264B9A6104E0254A92698243C7
:100A7000234B9A61704729B1214AD2690243204B26
:100A8000DA6104E01E4AD26982431D4BDA61704785
:100A900029B11B4AD2680243194BDA6004E0184AB4
:100AA000D2688243164BDA60704729B1144A126942
:100AB0000243134B1A6104E0114A12698243104B3E
:100AC0001A61704712494039086070470F49C8647D
:100AD00070470B49C87170470948406A40F0807000
:100AE00007494862704701460020054A92680A405B
:100AF0000AB1012000E00020704701498872704768
:100B0000001002400000FFF8FFFFF6FE0000424226
:100B10008004424200127A0000093D0014000020C7
:100B20002400002010B50446FB48844209D101216D
:100B30008803FFF7ADFF00214FF48040FFF7A8FFC7
:100B400032E0F648844209D101214804FFF7ADFFA5
:100B500000214FF40030FFF7A8FF25E0F048844261
:100B600009D101218804FFF7A0FF00214FF4802064
:100B7000FFF79BFF18E0EB48844209D10121C8042C
:100B8000FFF793FF00214FF40020FFF78EFF0BE0EB
:100B9000E548844208D101210805FFF786FF0021BE
:100BA0004FF48010FFF781FF10BD2DE9F04786B0AC
:100BB00005460E460024A24600BFA1460027B08984
:100BC00000B100BF2F462C8A4CF6FF700440F0881D
:100BD00004432C82AC894EF6F3100440B08831896E
:100BE0000843718908430443AC81AC8A4FF6FF4047
:100BF0000440B0890443AC8201A8FFF7C2FEC64896
:100C0000874202D1DDF810A001E0DDF80CA0A88930
:100C100000F4004040B10AEBCA0000EB0A10316852
:100C20004900B0FBF1F807E00AEBCA0000EB0A103C
:100C300031688900B0FBF1F86420B8FBF0F00401E2
:100C40002009642101FB1089A88900F4004040B10B
:100C5000322000EBC900B0FBF1F000F007000443C4
:100C600008E0322000EB09106421B0FBF1F000F045
:100C70000F0004432C8106B0BDE8F0874FF41651F5
:100C8000016000218180C18001810C21418100210E
:100C90008181704710B502460020108A4FF2FF0391
:100CA00018400B884C8823438C882343CC882343EB
:100CB0001843108210BD0021018041808180C180D5
:100CC000704721B1828942F40052828104E0828916
:100CD0004DF6FF731A4082817047F0B50346002439
:100CE00000260025002040F66A17B94200D100BF57
:100CF0001846C1F3421401F01F06012707FA06F552
:100D0000012C01D10C3004E0022C01D1103000E0A4
:100D100014301AB107682F43076002E00768AF4339
:100D20000760F0BD1AB1838A0B43838202E0838A95
:100D30008B4383827047028A4FF6F0731A40028217
:100D4000028A0A430282704782894FF2FF731A4077
:100D5000828182890A438281704721B1828942F06F
:100D60000202828104E082894FF6FD731A4082817B
:100D70007047028A4FF6DF731A400282028A0A43E2
:100D80000282704721B1028A42F48042028204E06A
:100D9000028A4BF6FF731A4002827047C1F30802C1
:100DA0008280704701468888C0F3080070478189B7
:100DB00041F0010181817047028BD2B20283028B24
:100DC00042EA012202837047028B02F47F420283CF
:100DD000028B0A430283704721B1828A42F02002CB
:100DE000828204E0828A4FF6DF731A408282704763
:100DF00021B1828A42F01002828204E0828A4FF698
:100E0000EF731A408282704721B1828A42F0080251
:100E1000828204E0828A4FF6F7731A40828270471A
:100E200021B1828942F40042828103E08289C2F3C7
:100E30000E028281704721B1828A42F4006282826E
:100E400004E0828A4FF2FF731A4082827047828ADE
:100E50004FF6FB731A408282828A0A43828270476D
:100E600021B1828A42F00202828204E0828A4FF635
:100E7000FD731A408282704702460020B1F5007F60
:100E800000D100BF13880B400BB1012000E000200F
:100E9000704701F40072B2F5007F00D100BFCA4371
:100EA0000280704770B50246002400230025002010
:100EB00040F66A16B14200D100BFC1F3421501F0FD
:100EC0001F03012606FA03F3012D02D19689334050
:100ED00006E0022D02D1168A334001E0968A3340A3
:100EE0000C12012606FA04F41688344013B10CB132
:100EF000012000E0002070BD10B50022002340F664
:100F00006A14A14200D100BF0A1201249440A3B286
:100F1000DC43048010BD0000003801400044004064
:100F200000480040004C0040005000400EE02020EF
:100F3000334908604FF4FA7002F029FE202030494E
:100F4000091F08604FF4FA7002F021FEEFE710E08D
:100F50002C48006880F020002A490860002401E045
:100F6000601C84B242F210708442F9DB052002F06A
:100F70000EFEEDE71CB50EE0694601A800F05DFA33
:100F80009DF800209DF804101FA001F0AAFE4FF468
:100F90007A7002F0FCFDEFE71CB5142003214FF43A
:100FA00000730022CDE900101B491CA002F031FDA6
:100FB0001C4908600846006820B10846006802F035
:100FC000EFFC02E04FF0FF301CBD142005214FF470
:100FD00000730022CDE90010134914A002F019FD9E
:100FE000154908600846006820B10846006802F00C
:100FF000D7FC02E04FF0FF30E6E70020E4E7000016
:10100000140C01400C1801404350552025642E2536
:1010100064250D0A000000004F0F00086C65643263
:10102000000000002C000020750F00086765745F49
:101030006370755F75736500300000203648704737
:101040003648704770B5364800684FF47A72B0FB86
:10105000F2F1B1F1807F00D31DE021F07F40401E0E
:101060004FF0E022506150170F22002807DA1307D3
:101070001D0E2C4B00F00F04241F1D5503E0130719
:101080001C0E294B1C5400BF00204FF0E022906141
:101090000720106100BF00F04BF800F082F800F06C
:1010A0003FF900F0D1F900F01BFAFFF7C9FF044641
:1010B000FFF7C4FF0546214601F048FF70BD10B59B
:1010C00001F00EFA00F0DDF901F01FFA10BD10B5C5
:1010D000044602F048FB19E020780A280AD10D21C5
:1010E0001248FFF75BFE00BF80211048FFF7C4FEE7
:1010F0000028F9D014F8011B0C48FFF74FFE00BF81
:1011000080210A48FFF7B8FE0028F9D0207800288F
:10111000E2D102F036FB10BD40010020402100204A
:101120000000002018ED00E000E400E0003801407D
:1011300008B501214820FFF791FC2020ADF8000000
:1011400010208DF8030003208DF80200694609483D
:10115000FFF7C8F92020ADF8000069460648FFF700
:10116000C1F920210348FFF76AFA20210248FFF75E
:1011700066FA08BD000C01400018014008B54FF4A4
:10118000A060FFF7E1F825208DF8000001208DF820
:1011900001008DF802008DF803006846FFF7D9F8CA
:1011A00008BD00B585B001210420FFF757FC0121DF
:1011B0008803FFF753FC4FF40070ADF810001820BF
:1011C0008DF8130003208DF8120004A95248FFF790
:1011D00089F94FF48060ADF8100004208DF81300F9
:1011E00004A94D48FFF77EF94FF4E130009000204C
:1011F000ADF80400ADF80600ADF80800ADF80C003D
:101200000C20ADF80A0069464448FFF7CEFCFFF712
:10121000B5FF012240F225514048FFF75EFD012154
:101220003E48FFF74EFD05B000BD70B504460D46C3
:1012300029462046FFF7B2FD00BF80212046FFF778
:101240001BFE0028F9D070BD2DE9F04107460D4680
:101250001646002405E0295D3846FFF7E6FF601CCE
:10126000C4B2B442F7DB00BF40213846FFF704FEAA
:101270000028F9D0BDE8F08170B506460C4600257F
:1012800000BF615D3046FFF7D0FF6D1C605D002838
:10129000F7D100BF40213046FFF7EEFD0028F9D01E
:1012A00070BD2DE9F04105460C46260AE7B23146ED
:1012B0002846FFF773FD00BF80212846FFF7DCFDBD
:1012C0000028F9D039462846FFF768FD00BF802185
:1012D0002846FFF7D1FD0028F9D0BDE8F08170B5B0
:1012E00004460D46E1B20D48FFF758FD00BF8021CE
:1012F0000A48FFF7C1FD0028F9D0204670BD10B59F
:10130000044600BF20210548FFF7B6FD0028F9D0AC
:101310000248FFF747FD10BD0008014000380140BA
:1013200008B501214020FFF799FB1020ADF800001F
:1013300048208DF8030069461148FFF7D3F80820CC
:10134000ADF8000048208DF8030069460C48FFF70F
:10135000C9F808BD70B504460D4629462046FFF77A
:1013600054F958B9642002F012FC29462046FFF7D0
:101370004CF908B9002070BD0120FCE70120FAE714
:101380000018014038B533480068D0B902F0EBF9D5
:1013900000F069F805460DE02E480068401C2D4914
:1013A00008600020009002E00098401C0090009827
:1013B0006428F9D300F057F8401B0A28ECD302F058
:1013C000E0F9002400F04FF8054609E0641C002015
:1013D000009002E00098401C009000986428F9D327
:1013E00000F041F8401B0A28F0D31A4800688442F4
:1013F0001BD218480068041B642060431549096823
:10140000B0FBF1F014490870642060431149096889
:10141000B0FBF1F201FB1200642148430D49096859
:10142000B0FBF1F00D49087006E00A4804600020A6
:10143000094908700949087038BD074A12780270D6
:10144000064A12780A70704710B5054800F09AF8FD
:1014500010BD0000380000203400002035000020BE
:1014600085130008704719480068704770B5044636
:1014700002F0CEFD054615480460284602F0CCFD7A
:1014800070BD10B511480068401C1049086002F09A
:101490005DFA0446A06C401EA064A06C18B9606C94
:1014A000A06402F0FCFA02F048FD10BD01460029DC
:1014B00002DA4FF0FF3008E04FF47A724A4302F24A
:1014C000E7324FF47A7392FBF3F070473C00002050
:1014D00000207047002070470020704700207047B0
:1014E00010B5234C02E020688047241D2148844227
:1014F000F9D310BD10B51F4C02E020688047241DB1
:101500001D488442F9D310BD10B50446FFF7F2FF21
:10151000FFF742FD10BD1CB5142002210B02002272
:10152000CDE90010AFF21F0114A002F072FA0446D8
:10153000204602F035FA1CBD10B502F069FDFFF738
:1015400081FD01F0E4FB02F041FD02F050F8FFF7ED
:10155000E2FF02F047FD00F062F802F062F80020BE
:1015600010BD10B502F054FDFFF7E6FF002010BDDE
:10157000284500082C450008304500086D61696E5B
:101580000000000034490860704770B537E002F091
:101590003FFD054600F058F818B330480068A0F148
:1015A000140404F11400D0E900215160D0E90012C4
:1015B00011604060006000BF02F0D5F8A06F10B16C
:1015C0002046A16F8847204601F0CEFF012805D1B3
:1015D00002F0D7F8284602F01FFD70BD02F0D1F8E6
:1015E00003E0284602F018FDF7E7284602F014FD54
:1015F000A06A01F0AFFD204601F09DFF00BF00F0A2
:1016000023F80028C3D100BFE7E707E012480068CD
:1016100010B1114800688047FFF7B7FFF6E71FB524
:1016200020200721C2000E4BCDE90032CDE9021087
:1016300000230C4A0CA10E4802F06EF90C4802F08F
:10164000AFF91FBD0A48704704490868884201D0B5
:10165000012070470020FCE7400000200801002026
:10166000C02100200B1600087469646C650000003E
:10167000402100204268116042684A604160086071
:1016800070472DE9F04105460C469046204602F091
:1016900034FAB8F1000F03D0B8F1010F23D105E0FF
:1016A00004F114012846FFF7E5FF1CE02E680FE067
:1016B000A6F1140794F8350097F83510884206DA39
:1016C00004F1140107F11400FFF7D4FF02E03668BB
:1016D000AE42EDD100BFAE4204D104F11401284660
:1016E000FFF7C8FF00BF00BF0020BDE8F08170B564
:1016F00005460EE002F08CFC06462868A0F11404B2
:101700004FF0FF302063204602F023F9304602F00C
:1017100083FC284600F0C3FE0028EBD0002070BDFB
:101720002DE9F04104460D4616461F462A46012182
:10173000204601F095FE204600F0B9FEA6836772B0
:101740000020BDE8F08110B5044604F11400FFF755
:10175000CEFF204601F0ABFE002010BD2DE9F04188
:1017600005460E4617462946012001F0B6FE0446FE
:1017700014B92046BDE8F081204600F098FEA6830B
:1017800067722046F6E710B5044604F11400FFF72F
:10179000AEFF204601F0CFFE002010BD73B5054618
:1017A00000BFFE48006818B12846FC490968884710
:1017B00000BF02F02DFC0646A88B002806DDA88B92
:1017C000401EA883304602F027FC28E0019828B983
:1017D000304602F021FC6FF001007CBD02F0B6F84B
:1017E0000446002020636A7A214605F11400FFF7C1
:1017F00048FF0198002809DD01AA002104F14C00EE
:1018000002F07FFB04F14C0002F0DAFA304602F0FD
:1018100003FC01F018FF206B08B1206BDDE700BF6F
:10182000DF48006818B12846DD490968884700BFCD
:101830000020D2E710B5044600212046FFF7AEFF96
:1018400010BD70B5044600BFD648006818B12046E8
:10185000D4490968884700BF002502F0D9FB064635
:1018600004F1140000F01BFE28B904F1140000F08C
:1018700026FE012502E0A08B401CA083304602F02A
:10188000CBFB012D01D101F0DEFE002070BD2DE962
:10189000F04104460E461546012E10D12F4602F0A7
:1018A000B7FB804604F11400FFF721FFA7834046F1
:1018B00002F0B2FB01F0C7FE0020BDE8F0814FF05E
:1018C000FF30FAE770B504460D4616462A46022157
:1018D000204601F0C5FD204600F0E9FD0120A0836F
:1018E00000202062FF20A0770020E077667270BDA4
:1018F00010B5044604F11400FFF7F9FE204601F08C
:10190000D6FD002010BD70B505460E4629460220C2
:1019100001F0E3FD04460CB9204670BD204600F0FE
:10192000C6FD0120A08300202062FF20A0770020B8
:10193000E07766722046F0E710B5044604F1140023
:10194000FFF7D5FE204601F0F6FD002010BD73B56F
:10195000044601F0FBFF054602F05AFB064600BFB5
:101960008E48006818B120468C490968884700BF36
:1019700000202863206AA84203D1E07F401CE07762
:1019800049E000BFA08B00280ADDA08B401EA08389
:10199000256295F83500A077E07F401CE0773AE0BB
:1019A000019840B96FF001002863304602F034FB23
:1019B0006FF001007CBD95F83500216A91F8351073
:1019C000884205DA05F135020221206A02F0E5F8C5
:1019D000627A294604F11400FFF753FE01980028AB
:1019E00009DD01AA002105F14C0002F08AFA05F197
:1019F0004C0002F0E5F9304602F00EFB01F023FE48
:101A0000286B28B1286B093000B9BBE7286BD1E7F8
:101A100002F0FEFA0646304602F0FEFA00BF6048C9
:101A2000006818B120465E490968884700BF002059
:101A3000C0E72DE9F0410446002701F087FF054685
:101A400002F0E6FA064600BF5648006818B1204684
:101A500054490968884700BF206AA84209D04FF05E
:101A6000FF302863304602F0D7FA4FF0FF30BDE870
:101A7000F081E07F401EE077E07FF8B9A07F216A27
:101A800091F83510884205D004F11E020221206A27
:101A900002F083F804F1140000F001FD78B96069E8
:101AA000A0F11405256295F83500A077E07F401C71
:101AB000E07704F1140000F002FD012706E0A08B9E
:101AC000401CA08300202062FF20A077304602F057
:101AD000A3FA012F01D101F0B6FD0020C7E70346AC
:101AE0004FF0FF30704770B504460D4616462A4643
:101AF0000321204601F0B4FC6672204600F0D7FCBA
:101B00000020E06170BD10B5044604F11400FFF739
:101B1000EEFD204601F0CBFC002010BD70B505465F
:101B20000E462946032001F0D8FC04460CB9204695
:101B300070BD6672204600F0BAFC0020E0612046CD
:101B4000F6E710B5044604F11400FFF7D0FD204677
:101B500001F0F1FC002010BD2DE9F04704460F46CE
:101B60001FB94FF0FF30BDE8F0874FF0000800BF0D
:101B70000C48006818B120460A490968884700BF28
:101B800002F046FA8246E0693843E06104F114004D
:101B900000F085FCF0BB666939E00000EC00002035
:101BA000F0000020F4000020A6F114054FF0FF39EA
:101BB00095F8400000F0010040B1E86BE169084091
:101BC000E96B884211D14FF000090EE095F8400012
:101BD00000F0020048B1E86BE169084028B1E86B09
:101BE000E1690840E8634FF000093668B9F1000F79
:101BF0000DD195F8400000F0040018B1E069E96BE0
:101C00008843E061284601F0A4FE4FF0010804F18A
:101C1000140000E001E08642C6D1504602F0FCF913
:101C2000B8F1010F01D101F00EFD00209BE72DE975
:101C3000FF4705460E461746DDF8308026B94FF0BF
:101C4000FF3004B0BDE8F0874FF0FF3901F07EFEB1
:101C500004460020206300BFFE48006818B12846F3
:101C6000FC490968884700BF02F0D2F9824607F0B4
:101C7000010030B1E8693040B0420AD14FF00009AC
:101C800007E007F0020020B1E869304008B14FF0EA
:101C90000009B9F1000F0DD1B8F1000F03D0E869C8
:101CA0003040C8F8000007F0040088B3E869B0438A
:101CB000E8612DE0039818B96FF00100206327E078
:101CC000E66384F840706A7A214605F11400FFF754
:101CD000D8FC0398002809DD03AA002104F14C0078
:101CE00002F00FF904F14C0002F06AF8504602F0DD
:101CF00093F901F0A8FC206B08B1206BA1E702F07A
:101D000087F98246B8F1000F02D0E06BC8F80000F6
:101D1000504602F081F900BFCF48006818B128464C
:101D2000CD490968884700BF206B8AE72DE9F0415B
:101D300004460D461746012D10D102F069F90646FA
:101D400004F11400FFF7D3FC0020E061304602F0FC
:101D500063F901F078FC0020BDE8F0814FF0FF301E
:101D6000FAE72DE9F04104460D4616461F46DDF818
:101D700018802A460421204601F072FB84F809806D
:101D8000204600F094FBE661278400206084A08454
:101D9000E08404F1280000F07FFB0020BDE8F08122
:101DA00010B5044604F11400FFF7A1FC04F128006B
:101DB000FFF79DFC204601F07AFB002010BD2DE9C5
:101DC000F04105460E4617462946042001F085FBE2
:101DD000044614B92046BDE8F0816772204600F041
:101DE00066FB2684218C880001F000F9E061E0693F
:101DF00020B9204601F09FFB0020ECE70020608422
:101E0000A084E08404F1280000F046FB2046E2E7CD
:101E100010B5044604F11400FFF769FC04F1280032
:101E2000FFF765FCE06901F095F9204601F083FBBE
:101E3000002010BD2DE9F74304460E46002701F0AF
:101E400085FD054600BF8548006818B120468349D6
:101E50000968884700BF02F0DBF88046608C218C5F
:101E6000884208D1029830B9404602F0D5F86FF0A8
:101E70000200BDE8FE8339E000202863029828B9FB
:101E8000404602F0C9F86FF00200F2E7627A294694
:101E900004F12800FFF7F5FB029800280CDDFFF79E
:101EA000E2FA074602AA002105F14C0002F029F8E7
:101EB00005F14C0001F084FF404602F0ADF801F05E
:101EC000C2FB286B08B1286BD3E702F0A1F880466B
:101ED000029800280ADDFFF7C6FAC71B0298C01B4C
:101EE00002900298002801DA00200290608C218C78
:101EF0008842C1D0A18CE06940F82160A08C401CD0
:101F0000A084A08C218C884201DB0020A084608CFE
:101F1000401C608404F1140000F0C1FA50B904F1CF
:101F2000140000F0CCFA404602F076F801F08BFB8A
:101F300000209EE7404602F06FF8002099E770B558
:101F400004460D46002229462046FFF773FF70BD68
:101F50002DE9F74304460E46002701F0F7FC05463D
:101F600000BF3C48006818B120463A4909688847D4
:101F700000BF02F04DF88046608C40B9029830B93D
:101F8000404602F049F86FF00100BDE8FE833AE0F8
:101F900000202863029830B9404602F03DF86FF007
:101FA00001002863F1E7627A294604F11400FFF783
:101FB00068FB029800280CDDFFF755FA074602AAD5
:101FC000002105F14C0001F09CFF05F14C0001F0EF
:101FD000F7FE404602F020F801F035FB286B08B10F
:101FE000286BD2E702F014F88046029800280ADD38
:101FF000FFF739FAC71B0298C01B0290029800280D
:1020000001DA00200290608C0028C1D0E18CE069E8
:1020100050F821003060E08C401CE084E08C218C82
:10202000884201DB0020E084608C401E608404F163
:10203000280000F034FAD0B904F1280000F03FFA8B
:10204000404601F0E9FF00BF0348006850B1204658
:10205000014905E0EC000020F0000020F400002021
:102060000968884700BF01F0EEFA00208DE740467E
:1020700001F0D2FF00BFF848006818B12046F649C9
:102080000968884700BF00207FE72DE9F04104463A
:102090000D461746012D16D101F0BAFF064604F190
:1020A0001400FFF724FB04F12800FFF720FB0020B9
:1020B0006084A084E084304601F0AEFF01F0C3FAF2
:1020C0000020BDE8F0814FF0FF30FAE72DE9F05F26
:1020D00004460F4690469946DDE90AAB3A4605218B
:1020E000204601F0BDF984F809B0204600F0DFF980
:1020F000C4F81C8009F1030020F003002084208C28
:10210000001DBAFBF0F060840020A062E062206352
:10211000002608E0208C001DE16906FB0015206BFD
:1021200028602563761C608CB042F3DC0020A0841C
:10213000BDE8F09F10B5044604F11400FFF7D7FA8C
:10214000204601F0B4F9002010BD10B5044604F19A
:102150001400FFF7CCFAE06900F0FCFF204601F024
:10216000EAF9002010BD2DE9F04707468846914660
:102170009A463946052001F0B0F9044614B92046C4
:10218000BDE8F08784F809A0204600F090F908F136
:10219000030020F003002084A4F82290218C091D64
:1021A000628C01FB02F000F021FFE061E06920B9E0
:1021B0002046FFF7CAFF0020E2E70020A062E062AD
:1021C0002063002508E0208C001DE16905FB001656
:1021D000206B306026636D1C608CA842F3DC00200D
:1021E000A0842046CCE72DE9F04104460F46164670
:1021F000208CB04203D24FF0FF30BDE8F08100BF29
:102200009648006818B1204694490968884700BF7D
:1022100001F0FEFE8046256B2DB9404601F0FCFE24
:102220006FF00200E9E728682063404601F0F4FE01
:102230000020286032463946281D00F0DAF901F006
:10224000E7FE8046E06A08B1E06A0560E562A06AE0
:1022500000B9A562A08C401CA08404F1140000F019
:102260001EF950B904F1140000F029F9404601F0BC
:10227000D3FE01F0E8F90020BFE7404601F0CCFEB4
:102280000020BAE72DE9F04104460F461646208C9F
:10229000B04203D24FF0FF30BDE8F08100BF6F487D
:1022A000006818B120466D490968884700BF01F0F1
:1022B000AFFE8046256B2DB9404601F0ADFE6FF0B4
:1022C0000200E9E728682063404601F0A5FE324697
:1022D0003946281D00F08DF901F09AFE8046A06A6B
:1022E0002860A562E06A00B9E562A08C401CA08469
:1022F00004F1140000F0D3F850B904F1140000F018
:10230000DEF8404601F088FE01F09DF90020C3E7A9
:10231000404601F081FE0020BEE72DE9FF4704465C
:102320000F4690464FF0000901F010FB054600BF34
:102330004B48006818B1204649490968884700BFE2
:1023400001F066FE8246A08C48B9039838B9504621
:1023500001F062FE6FF0010004B0BDE8F0873CE0E0
:1023600000202863039830B9504601F055FE6FF005
:1023700001002863F0E7627A294604F11400FFF7B0
:1023800080F9039800280CDDFFF76DF8814603AA59
:10239000002105F14C0001F0B4FD05F14C0001F005
:1023A0000FFD504601F038FE01F04DF9286B08B1E1
:1023B000286BD1E701F02CFE8246039800280CDD43
:1023C000FFF751F8A0EB09090398A0EB090003906F
:1023D0000398002801DA00200390A08C0028BFD0C9
:1023E000A66A3068A062E06AB04201D10020E062D3
:1023F000A08C401EA084504601F00EFE208C40456B
:1024000001D2208C00E040460246311D384600F0E3
:10241000F0F801F0FDFD8246206B306026635046E7
:1024200001F0FAFD00BF0C48006818B120460A49C7
:102430000968884700BF00208EE72DE9F041044677
:102440000E469046012E24D101F0E2FD074604F12C
:102450001400FFF74CF910E0F0000020F400002019
:10246000EC000020A56A2868A062E06AA84201D1B9
:102470000020E062206B28602563A06A0028F1D16B
:10248000A084384601F0C8FD01F0DDF80020BDE869
:10249000F0814FF0FF30FAE740600060704701467E
:1024A0000868884201D1012070470020FCE710B580
:1024B000044604F11400FFF7EFFF002010BD70B5D3
:1024C00004462068A0F11405284601F042FA0020D5
:1024D00070BD0000194908607047194908607047CD
:1024E00010B501F095FD044616480078401C1549CA
:1024F000087000BF1148006810B11048006880479C
:1025000000BF204601F088FD10BD10B501F080FD30
:1025100004460C480078401E0A49087000BF08486D
:10252000006810B106480068804700BF204601F0EF
:1025300073FD10BD03480078704700004400002080
:10254000480000204C00002010B5FFF7F3FF10B149
:10255000FA48006810BD01F0F9F9044614B9F748CB
:102560000068F7E7206BF5E770B50446FFF7E2FF78
:1025700010B1F248046070BD01F0E8F9054615B9E4
:10258000EE480460F7E72C6300BFF4E710B5FFF7EF
:10259000D1FF08B1E94810BD01F0D8F9044614B1E3
:1025A00004F13000F7E7E548F5E7F0B50C460546DD
:1025B000E6B2042A15D300F0030797B9014646EAAC
:1025C000062343EA034304E008C108C108C108C167
:1025D000103A102AF8D201E008C1121F042AFBD2D7
:1025E0000D4601E005F8016B171EA2F10102F9D1B9
:1025F000F0BD2DE9F0410F46164604463D463346F0
:10260000102B28D305F0030C04F003084CEA080C47
:10261000BCF1000F1FD121462A4610E052F804CB2E
:1026200041F804CB52F804CB41F804CB52F804CB68
:1026300041F804CB52F804CB41F804CB103B102BEB
:10264000ECD204E052F804CB41F804CB1B1F042B5E
:10265000F8D20C46154603E015F801CB04F801CB7F
:10266000B3F1000CA3F10103F6D1BDE8F08170B520
:102670000C46014623468B4210D29D188D420DD93F
:102680001144134405E05D1E2B462E784D1E29464D
:102690002E70151EA2F10102F5D108E003E013F837
:1026A000015B01F8015B151EA2F10102F7D170BDBB
:1026B000F0B5034600201C460D4608E026782F782A
:1026C000F61B301E00D004E0641C6D1C521E002A54
:1026D000F4D800BFF0BD01460A4600E0521C107855
:1026E0000028FBD1501A7047F0B506460F46384611
:1026F000FFF7F1FF05460DB93046F0BD3046FFF754
:10270000EAFF044609E0641E2A4639463046FFF7D0
:10271000CFFF08B93046F0E7761CAC42F3DA002070
:10272000EBE730B503460C4600BF13F8011B14F865
:10273000012B412902DB5A2900DC2031412A02DB2E
:102740005A2A00DC2032914201D10029EDD1881AA9
:1027500030BD70B50346A2B118460C4600BF14F850
:10276000016B00F8016B3EB902E0002500F8015B47
:10277000551E2A1EF9D102E0551E2A1EEFD100BFB8
:1027800000BF184670BD30B5034600200BE011F8BD
:10279000015B1C78641B64B2201E02D113F8015B3C
:1027A00005B902E0521E002AF1D100BF30BD024639
:1027B00001E0521C491C107818B110780B7898422F
:1027C000F7D010780B78C01A704702460B461146B6
:1027D00000E0491C087810B1881A9842F9D3881A89
:1027E000704770B504462046FFF775FF451C284624
:1027F00000F0FCFB06460EB9002070BD2A462146BB
:102800003046FFF7F6FE3046F7E770472DE9F04F08
:1028100085B00D469C46DDE90F740E9B04F0400820
:10282000B8F1000F02D0DFF8188101E0DFF8148161
:10283000CDF8008004F01008B8F1000F01D024F0AA
:10284000010404F00108B8F1000F02D04FF0300885
:1028500001E04FF02008C246002604F00208B8F15B
:10286000000F11D0002A02DA2D2652420CE004F0AB
:102870000408B8F1000F01D02B2605E004F0080889
:10288000B8F1000F00D02026002142B94FF0300BE4
:102890008846491C0DF1040909F808B01DE01AE04A
:1028A000E146B9F10A0F08D14FF00A0BB2FBFBFE6B
:1028B0000BFB1E28B2FBFBF202E002F00F0812092C
:1028C00000BFDDF8009019F808B08846491C0DF1EA
:1028D000040909F808B0002AE2D1B94200DD0F4628
:1028E000DB1B04F01108B8F1000F10D116B1002B5A
:1028F00000DD5B1E06E0A84203D84FF0200880F8F8
:102900000080401CB3F10008A3F10103F3DC26B101
:10291000A84201D806705B1E401C04F01008B8F1F4
:10292000000F0AD104E0A84201D880F800A0401CA2
:10293000B3F10008A3F10103F5DC0CE05000002026
:102940001145000800450008A84203D84FF03008A0
:1029500080F80080401CB8467F1E8845F4DC08E003
:10296000A84205D80DF1040818F8018080F800800D
:10297000401CB1F10008A1F10101F1DC06E0A84220
:1029800003D84FF0200880F80080401CB3F1000805
:10299000A3F10103F3DC05B0BDE8F08F0146002090
:1029A00009E00B685A1C0A601A7800EB800302EBFE
:1029B0004302A2F130000A681278303A0A2AF0D3B2
:1029C00070472DE9FF4F89B0804644460A9840443D
:1029D000461E464504D24FF0FF36A6EB08000A908B
:1029E0006FE10B980078252806D0B44202D80B98E6
:1029F00000782070641C61E1002526E00B98401CE3
:102A00000B900B9800782D2802D145F010051CE0A2
:102A10000B9800782B2802D145F0040515E00B989F
:102A20000078202802D145F008050EE00B980078C8
:102A3000232802D145F0200507E00B9800783028C4
:102A400002D145F0010500E000E0D7E700BF4FF0FC
:102A5000FF370B98007830380A2804D20BA8FFF70C
:102A60009DFF07460EE00B9800782A280AD10B98A4
:102A7000401C0B900C9880C80C90002F02DA7F420B
:102A800045F010054FF0FF390B9800782E281CD127
:102A90000B98401C0B900B98007830380A2804D211
:102AA0000BA8FFF77BFF81460AE00B9800782A28E5
:102AB00006D10B98401C0B900C9850F8049B0C907E
:102AC000B9F1000F01DA4FF00009002004900B98D3
:102AD0000078682803D00B9800786C2805D10B98F3
:102AE000007804900B98401C0B900A2005900B98DE
:102AF00000786F2875D00CDC632813D004DC2528FF
:102B000070D058286FD18DE064286DD06928F9D134
:102B10008FE070286AD0732825D0752878D078285F
:102B2000F0D182E005F0100040B904E0B44201D8D1
:102B300020202070641C781E071EF7DC0C9810F80B
:102B4000041B0C90C8B20790B44201D807982070BB
:102B5000641C04E0B44201D820202070641C781E5C
:102B6000071EF7DCAAE00C98006806900C98001D80
:102B70000C90069808B9B1A006900698FFF7ABFD37
:102B80008346B9F1000F02DDCB4500DDCB4605F0F1
:102B9000100048B904E0B44201D820202070641C21
:102BA00038467F1E5845F6DC002008900BE0B44202
:102BB00002D8069800782070641C0698401C069085
:102BC0000898401C089008985845F0DB04E0B4428F
:102BD00001D820202070641C38467F1E5845F6DC42
:102BE0006CE01CE015E028E022E0FFE7781C10B95B
:102BF000082745F00105CDE9007902950C9804C835
:102C0000102331460C902046FFF700FE044655E0A5
:102C100012E0B44201D825202070641C4EE0082048
:102C200005901DE045F0400500BF1020059017E01D
:102C300000BF45F0020500BF12E0B44201D82520D4
:102C40002070641C0B98007830B1B44202D80B9805
:102C500000782070641C02E00B98401E0B902DE061
:102C600000BF04986C2807D10C9850F804AB0C9066
:102C700005F00200B8B116E0049868280BD10C9852
:102C800030F8041B1FFA81FA0C9005F0020050B1D5
:102C90000FFA8AFA07E00C9850F804AB0C9005F094
:102CA000020000B100BFCDE90079029552463146DD
:102CB0002046059BFFF7AAFD044600BF0B98401C69
:102CC0000B900B98007800287FF48BAEB44201D8AB
:102CD000207001E000203070A4EB08000DB0BDE8CA
:102CE000F08F0FB438B505A800907F215548009BA0
:102CF000049AFFF766FE04467F2C00D97F245148D2
:102D0000FEF7E5F90020009038BC5DF814FB08B52B
:102D10004DA0FFF7E6FF4FA0FFF7E3FF56A0032308
:102D200000221946009057A0FFF7DBFF5DA0FFF7D8
:102D3000D8FF08BD0FB4F8B504460D4609A80090A9
:102D400029462046009B089AFFF73BFE06460020D6
:102D500000903046F8BC5DF814FB37B505460C46CC
:102D600022464FF0FF312846029BFFF72AFE3EBD68
:102D70000FB438B5044606A800902046009A05997D
:102D8000FFF7EBFF054600200090284638BC5DF8B1
:102D900014FB10B5044604B910BD2046FEF797F9A0
:102DA00000BFF9E72DE9F04107460C46E01C20F092
:102DB0000304F81C20F0030000EB0408404600F078
:102DC00015F9054665B1601E284008B92E1904E0C2
:102DD000601E2844611E20EA010646F8045C354660
:102DE0002846BDE8F08170B5044654F8045C2846D6
:102DF00000F0B0F970BD014609B900207047C8B2B3
:102E000020B1C8B2324A105C401CF7E701F47F40A1
:102E100028B12F48C1F30722805C0930EEE701F4A6
:102E20007F0028B12A48C1F30742805C1130E5E7F2
:102E3000274800EB116000781930DFE7284E554C29
:102E40004C290000C02200200A205C207C202F0A90
:102E5000000000002D205254202D2020202020543E
:102E60006872656164204F7065726174696E672075
:102E700053797374656D0A004A756C2032372032BD
:102E800030323100202F207C205C20202020202583
:102E9000642E25642E2564206275696C6420257378
:102EA0000A0000002032303036202D2032303138F8
:102EB00020436F7079726967687420627920727438
:102EC0002D746872656164207465616D0A0000008C
:102ED00000440008FC4908607047FC4908607047DE
:102EE00030B5FB4C436824681919884215D04B88CB
:102EF0009BB9F84B1B6899420FD0F74B1B688B426C
:102F000001D1F54B18604B684360F14B1B68C31A45
:102F1000EF4D4C682D682C44A360ED4C8368246809
:102F20001A19824211D053887BB9EB4B1B6883423C
:102F300001D1E94B1A6043685360E54B1B68D31A13
:102F4000E34D44682D682C44A36030BD2DE9F04169
:102F500005460E46E81C20F0030726F00308B8F1EA
:102F6000180F09D9A8F11800B84205D3A8EB07003B
:102F70001838DA49086006E032462946D8A0FFF73B
:102F8000B0FEBDE8F081D248076004684FF4F55008
:102F90002080D24800680C3060600020A060608013
:102FA000CB49606809680844CA4908604FF4F55085
:102FB000096808800120C74909684880C748006837
:102FC0000C30C44909684860C44800680C30C149E5
:102FD0000968886000230122D0A1D248FEF7A0FB37
:102FE000BB480068BC49086000BFCAE72DE9F04152
:102FF000054615B90020BDE8F081E81C20F0030566
:10300000B6480068854201D90020F4E70C2D00D2B3
:103010000C254FF0FF31C348FEF7C0FBAE480068F7
:10302000AB490968461A8AE0A94800688419608893
:1030300000287CD106F10C006168081AA8427AD3F6
:1030400006F10C006168091A05F11800814230D3BD
:1030500006F10C0000EB05089D48006800EB08072E
:103060004FF4F55038800020788060687860BE604A
:10307000C4F80480012060809848796800680C30AA
:10308000814205D09249786809680844C0F80880F0
:10309000A548016805F10C000844A3490860A3484D
:1030A00000680968884219D29F4800689F490860F3
:1030B00014E001206080864960680968611A401A3E
:1030C000994909680844984908609848006809685F
:1030D000884203D294480068944908604FF4F55040
:1030E00020807D480068844212D107E07A48006859
:1030F000406877490968084477490860764800685D
:10310000408828B174480068724909688842EDD146
:103110008448FEF796FB00BF6B48006828B129463B
:1031200004F10C00684A1268904700BF00E002E01A
:1031300004F10C005FE76648006830444668674861
:103140000068401BB0423FF66FAF7648FEF779FB50
:10315000002050E770B5054605B970BD00BF5B485B
:10316000006818B1284659490968884700BF58487F
:103170000068854203D357480068854200D3ECE7D6
:10318000A5F10C044FF0FF316648FEF707FB60889D
:1031900018B12088B0F5F55F08D065A0FFF7A1FD54
:1031A00023886288214669A0FFF79BFD002060808C
:1031B0004FF4F550208048480068844201D24648C8
:1031C0000460434960680968611A401A56490968F1
:1031D000081A554908602046FFF782FE5148FEF75D
:1031E00030FB00BFB9E72DE9F05F06460C46E01C56
:1031F00020F0030439480068844202D90020BDE869
:10320000F09F24B93046FFF7A5FF0020F7E71EB96D
:103210002046FFF7EBFEF2E74FF0FF314148FEF7A3
:10322000BDFA2B480068864203D32A4800688642CC
:1032300004D33C48FEF705FB3046E0E7A6F10C0856
:1032400023480068A8EB0009D8F80400A0EB0900A7
:10325000A0F10C07A74204D13248FEF7F2FA30463B
:10326000CDE704F11800B8422DD2381B2E49096869
:10327000081A2D49086009F10C0000EB040A1448F3
:10328000006800EB0A054FF4F550288000206880A4
:10329000D8F804006860C5F80890C8F804A00F4882
:1032A000696800680C30814205D00949686809687E
:1032B0000844C0F808A02846FFF712FE1948FEF798
:1032C000C0FA30469BE759E0540000205800002027
:1032D0005C000020600000206400002068000020E6
:1032E0006D656D20696E69742C206572726F722035
:1032F000626567696E2061646472657373203078FB
:1033000025782C20616E6420656E6420616464728F
:1033100065737320307825780A0000006865617055
:1033200000000000402300206C00002070000020FE
:10333000746F20667265652061206261642064613B
:10334000746120626C6F636B3A0A00006D656D3AC0
:10335000203078253038782C207573656420666CB1
:1033600061673A2025642C206D6167696320636F73
:1033700064653A203078253034780A001B48FEF71F
:1033800060FA2046FFF732FE8346BBF1000F0CD0F7
:10339000A74201D2384600E0204602463146584650
:1033A000FFF727F93046FFF7D5FE584627E770B5F7
:1033B00004460D4604FB05F0FFF718FE06462EB145
:1033C00004FB05F200213046FFF7EFF8304670BDF0
:1033D00010B1074B1B68036011B1064B1B680B60F3
:1033E00012B1054B1B68136070470000402300209A
:1033F000680000206C00002070000020026851600E
:1034000002680A60016048607047D0E9002151609D
:10341000D0E9001211604060006070476C4908609C
:1034200070476C49086070476B49086070476B498A
:10343000086070476A49086070477047024600217B
:103440000AE0684800EB01100078904203D165481B
:1034500000EB01107047491C0729F2DB0020F9E757
:103460002DE9F04104460D4616462846FFF7E6FFD3
:10347000074645F080002072082231462046FFF7BB
:1034800068F900BF5248006818B1204650490968E1
:10349000884700BF00F0BCFD804604F10C01381DD8
:1034A000FFF7ACFF404600F0B7FDBDE8F08170B516
:1034B000044600BF4748006818B1204645490968DE
:1034C000884700BF00F0A4FD054604F10C00FFF79B
:1034D0009CFF284600F0A0FD70BD2DE9F041054697
:1034E0000F462846FFF7AAFF0646F068FFF77EFD65
:1034F000044614B90020BDE8F081257200206072F6
:10350000082239462046FFF724F900BF30480068FA
:1035100018B120462E490968884700BF00F078FDA1
:10352000804604F10C01301DFFF768FF404600F0B3
:1035300073FD2046DFE770B5044600BF25480068EC
:1035400018B1204623490968884700BF00F060FD94
:10355000054604F10C00FFF758FF284600F05CFD1B
:103560002046FFF7F7FD70BD0146087A00F08000A5
:1035700008B1012070470020FCE72DE9F041044626
:103580000D464FF00008002600270CB10B2D02DD80
:103590000020BDE8F08100F0E6F81FB92846FFF7EB
:1035A0004DFF07467E680CE0A6F10C080822214674
:1035B0004046FFF7E8F818B900F0E3F84046E8E7BE
:1035C0003668381D8642EFD100F0DBF80020E0E7D6
:1035D000E4000020E8000020EC000020F0000020C3
:1035E000F40000207400002077490860704710B58F
:1035F000002076490880002405E0754901EBC400ED
:1036000000F0DEF8641C082CF7DB07207149087015
:1036100000207149086071490860714800F0D0F8D5
:1036200010BD70B56D480068FFF7E5FB451E6848A2
:1036300050F83500A0F114046748046004F11C0040
:1036400000F01BFD70BD2DE9F04100F0E1FC0746E4
:103650005E480088002837D160480068FFF7CBFB40
:10366000461E5B4850F83600A0F114045A48006822
:10367000844225D057490E7057480568046000BF42
:103680005148006820B1214628464F4A12689047A9
:1036900000BF5448007848B904F11C0105F11C0032
:1036A00000F0BDFC384600F0B7FC0CE004F11C0152
:1036B00005F11C0000F0B3FC384600F0ADFC02E060
:1036C000384600F0A9FC02E0384600F0A5FCBDE851
:1036D000F08170B5044600F09BFC054614F8340FE9
:1036E00020F00F0040F0010020706278343C384B2D
:1036F00003EBC20004F114014268116042684A60A1
:103700004160086000BF3549A06B09680843334930
:103710000860284600F080FC70BD70B5044600F0DB
:1037200077FC054604F11400D0E900215160D0E98E
:10373000001211604060006000BF94F83510244A08
:1037400002EBC1000168814201D1012100E00021AA
:1037500029B12248A16B00688843204908602846A7
:1037600000F05AFC70BD10B500F052FC044617483A
:103770000088401C00B215490880204600F04CFC2F
:1037800010BD10B500F044FC044610480088401EEF
:1037900000B20E4908800846B0F90000002807DC96
:1037A00000200880204600F037FCFFF74CFF02E0C5
:1037B000204600F031FC10BD0448008880B27047FC
:1037C000406000607047000010010020F8000020F9
:1037D0006023002000010020FC00002004010020E4
:1037E000080100204C0000200268516002680A6055
:1037F000016048607047D0E900215160D0E90012B3
:103800001160406000607047FB4908607047FB49E9
:1038100008607047FA490860704770B5F948046855
:1038200000F0F6FB05462046FFF777FF042084F8FA
:10383000340004F14C0000F088FA2046FFF794FEB3
:10384000012805D1A06F18B92046FFF730FE04E02B
:1038500004F11401EC48FFF7C7FF284600F0DCFB39
:10386000FFF7F1FE70BD70B5044625466FF001000C
:10387000286305F11400FFF7BEFF2846FFF729FF74
:10388000FFF7E1FE70BD2DE9FC5F04468B4615464F
:103890001E46DDE90C9ADDE90E7804F11400406063
:1038A000006000BF1C346560A660C4F80C90C4F8CA
:1038B00010A02321D4E90302FEF777FED4E9033CEC
:1038C00063441A1FAFF2AD03D4E9010100F018FC04
:1038D0002060A77667760020E061C4F82880C4F8ED
:1038E0002C8060612076E06520661C3C00902346B9
:1038F000AFF28D022146019004F14C0000F00EFA67
:1039000000BFBF48006818B12046BD490968884714
:1039100000BF0020BDE8FC9F2DE9FF5F05460C4677
:1039200016461F46DDE910ABDDE90E89224600216F
:103930002846FFF795FD3B463246214628468DE84E
:10394000000FFFF7A0FF04B0BDE8F09FAD4800688E
:10395000704770B5044694F8340000F00F00022858
:1039600002D04FF0FF3070BD00F052FB054604F16D
:103970001400FFF740FF04F14C0000F0A1FA2846C4
:1039800000F04AFB2046FFF7A4FE00BF9B480068FA
:1039900018B1204699490968884700BF0020E2E72E
:1039A00010B504463434A0786070617801208840F6
:1039B0006060022004F834092046FFF7CAFFFFF7D1
:1039C000C5FF08B1FFF73FFE002010BD70B50446EB
:1039D00094F8340000F00F0010B12046FFF79DFE70
:1039E00004F14C0000F0B1F9042084F834002046C2
:1039F000FFF75DFDA06F50B100F00AFB054604F132
:103A000014018148FFF7F0FE284600F005FB002076
:103A100070BD2DE9FF5F06460F4690461D46DDE965
:103A20000EAB31460020FFF758FD8146B9F1000F7B
:103A300003D1002004B0BDE8F09F2846FFF7D6FA76
:103A4000044624B94846FFF776FD0020F2E74346D6
:103A50003A46314648468DE8300CFFF714FF484699
:103A6000E8E770B5044694F8340000F00F0010B198
:103A70002046FFF752FE04F14C0000F066F90420E6
:103A800084F8340000F0C4FA054604F114015E48DD
:103A9000FFF7AAFE284600F0BFFA002070BD70B5FF
:103AA00000F0B6FA05465748046894F8340000F070
:103AB0000F0001281CD1D4E90510814218D004F16F
:103AC0001400FFF798FE94F83520504B03EBC2002A
:103AD00004F114014268116042684A604160086064
:103AE00000BF284600F098FAFFF7ADFD002070BD3A
:103AF000284600F091FA0020F9E770B5044694F8E2
:103B0000340000F00F00012802D04FF0FF3070BDEC
:103B100000F07EFA054694F8340020F00F0040F0E3
:103B2000020084F834002046FFF7F7FD04F14C0052
:103B300000F0C6F9284600F06FFA00BF2E48006872
:103B400018B120462C490968884700BF0020DEE7ED
:103B500031B500F05DFA05462A4804682046FFF7B3
:103B6000CCFF6A46002104F14C0000F0CAF904F1D0
:103B70004C0000F025F9284600F04EFAFFF763FDEF
:103B8000206B801C08B900202063002038BD10B5D0
:103B900004462046FFF7DCFF10BD2DE9F041044646
:103BA0000E4615463EB3012E37D0022E39D100F015
:103BB0002FFA074694F8340000F00F0001280ED1C8
:103BC0002046FFF7AAFD287884F8350094F83510D0
:103BD00001208840A0632046FFF77BFD07E028789E
:103BE00084F8350094F8351001208840A0633846E9
:103BF00000F012FA16E00BE014010020180100207A
:103C00001C010020FC00002008010020602300208F
:103C10002046FFF7C5FEBDE8F0812046FFF721FFF3
:103C2000F9E700BF00BF0020F5E72DE9F0410646A7
:103C3000FFF78CFE08B1FFF796FD0020FFF7FEFBB3
:103C40000446656810E0A5F10C07082231463846A5
:103C5000FEF799FD38B9FFF779FE08B1FFF791FD3E
:103C60003846BDE8F0812D68201D8542EBD1FFF775
:103C70006DFE08B1FFF785FD0020F2E70268516094
:103C800002680A60016048607047DC49086070475C
:103C90002DE9F04704460E4617469846DDF8209079
:103CA00084F80990607A20F001006072E661276272
:103CB0000020A062C4F82480002506E004F114016D
:103CC00001EBC50000F08FF96D1C012DF6DBBDE89E
:103CD000F08770B50446204600F088F910B14FF027
:103CE000FF3070BD2068A0F11405A86AF9E710B58F
:103CF0000246002001460EE002F1140303EBC1006E
:103D0000D0E900436360D0E9003423604060006084
:103D100000BF481C01460129EEDB10BD2DE9F84328
:103D200007460C4615461E46DDE90889224609214C
:103D30003846FFF795FB4346324629463846CDF8CC
:103D40000090FFF7A5FFBDE8F88370B5044600F0CA
:103D50005FF905462046FFF7CAFF284600F05CF9E8
:103D60002046FFF7A4FB002070BD2DE9F843044670
:103D70000E4617469846DDF8209021460920FFF7A9
:103D8000ACFB054615B90020BDE8F88343463A462A
:103D900031462846CDF80090FFF77AFF2846F3E732
:103DA00070B5044600F034F905462046FFF79FFF42
:103DB000284600F031F92046FFF7BDFB002070BD1A
:103DC0002DE9F843054600F023F980462846FFF721
:103DD0008EFF687A20F001006872404600F01CF9FE
:103DE00000BF8748006818B1284685490968884798
:103DF00000BFFDF738FB696A0844A86200F008F9C3
:103E00008046804E009600242AE019E05DF82420C8
:103E10001168142202EBC402881A826AAB6AD21AB1
:103E200000D108E0826AAB6AD21A6FF000439A426E
:103E300000D20CE000BF5DF8240000684DF82400BB
:103E40005DF8240006EBC40149688842DED100BF5A
:103E50002CB15DF824000830611C4DF82100641C71
:103E6000002CD2D068480068401C674908600846AA
:103E7000076805F114010098FFF700FF022412E023
:103E800007F0030060B9C4F1010305F1140202EB6D
:103E9000C301C4F101025DF82200FFF7EFFE00E06C
:103EA00003E0BF08641C012CEAD900BF687A40F027
:103EB00001006872404600F0AFF80020BDE8F883CA
:103EC00070B50446607A00F0010010B94FF0FF3081
:103ED00070BD00BF4D48006818B120464B490968C5
:103EE000884700BF00F094F805462046FFF7FFFE24
:103EF000284600F091F8607A20F0010060720020FE
:103F0000E6E7034649B1012904D0022908D0032974
:103F100010D10AE0586A10600CE01068586209E09D
:103F2000587A20F00200587204E0587A40F00200FB
:103F3000587200BF00BF0020704770B5FDF793FABC
:103F4000054600F065F8064631E02E480068A0F10D
:103F50001404A06A281A6FF00041884226D200BFDC
:103F60002648006818B1204624490968884700BFE0
:103F70002046FFF7BCFED4E907108847FDF773FA27
:103F80000546607A00F0020058B1607A00F0010046
:103F900038B1607A20F0010060722046FFF710FF10
:103FA00005E0607A20F00100607200E004E015484E
:103FB00000F01CF80028C8D000BF304600F02CF8F4
:103FC00070BD10B50F48FFF784FE10BD10B500247A
:103FD00005E00C4901EBC40000F005F8641C002C5E
:103FE000F7D010BD70474060006070470146086818
:103FF000884201D1012070470020FCE72801002001
:10400000F0000020200100202C010020F4000020FE
:10401000EFF3108072B6704780F310887047324A11
:104020001368012B04D04FF0010313602F4A106076
:104030002F4A11602F484FF0805101607047EFF315
:10404000108272B62848016891B14FF000010160FA
:104050002648016829B1EFF3098121E9F00F0068D2
:104060000160234909680968B1E8F00F81F3098804
:1040700082F310884EF0040E70471D4908601B49FA
:104080004FF00000086018494FF0010008601A481E
:104090004FF47F01D0F8002041EA02010160154889
:1040A0004FF08051016015480068006880F308886F
:1040B00061B662B670471EF0040F14BFEFF30880BC
:1040C000EFF3098020E9F00F40F804ED14BF80F30E
:1040D000088880F3098800B500F038F85DF804EB33
:1040E0004EF0040E7047000038010020300100201F
:1040F0003401002004ED00E020ED00E008ED00E0D8
:10410000F0B504460D461646301D20F00700403835
:104110000146002203E03F4F41F82270521C102A52
:10412000F9D30D624FF0000CC1F824C0C1F828C0CB
:10413000C1F82CC0C1F830C04B638C634FF0807C59
:10414000C1F83CC0F0BD34490860704770B5054601
:104150002C1D3148006838B128462F490968884726
:10416000064606B970BD00BF2CA0E16BFEF7B9FD95
:104170002EA0216AFEF7B5FD30A0616AFEF7B1FD01
:1041800032A0A16AFEF7ADFD34A0E16AFEF7A9FDF9
:1041900036A02168FEF7A5FD38A06168FEF7A1FDF5
:1041A0003AA0A168FEF79DFD3CA0E168FEF799FDED
:1041B0003EA02169FEF795FD40A06169FEF791FDE3
:1041C00042A0A169FEF78DFD44A0E169FEF789FDDB
:1041D00046A0216BFEF785FD48A0616BFEF781FDCF
:1041E0004AA0A16BFEF77DFD287800F0040038B1ED
:1041F000FFF7ACFB0646314648A0FEF772FD02E031
:104200004EA0FEF76EFD00BFFEE710B552A0FEF710
:1042100068FD10BDEFBEADDE3C0100207073723A48
:10422000203078253038780A000000007230303AAB
:10423000203078253038780A000000007230313A9A
:10424000203078253038780A000000007230323A89
:10425000203078253038780A000000007230333A78
:10426000203078253038780A000000007230343A67
:10427000203078253038780A000000007230353A56
:10428000203078253038780A000000007230363A45
:10429000203078253038780A000000007230373A34
:1042A000203078253038780A000000007230383A23
:1042B000203078253038780A000000007230393A12
:1042C000203078253038780A000000007231303A0A
:1042D000203078253038780A000000007231313AF9
:1042E000203078253038780A000000007231323AE8
:1042F000203078253038780A00000000206C723AAF
:10430000203078253038780A000000002070633AA9
:10431000203078253038780A000000006861726427
:10432000206661756C74206F6E20746872656164BC
:104330003A2025730D0A0D0A0000000068617264BE
:10434000206661756C74206F6E2068616E646C65A8
:10435000720D0A0D0A00000073687574646F776E41
:104360002E2E2E0A00000000064C074D06E0E068E5
:1043700040F0010394E8070098471034AC42F6D3AC
:10438000FBF7DAFE344500085445000870B58C1878
:1043900010F8015B15F0070301D110F8013B2A1159
:1043A00006D110F8012B03E010F8016B01F8016B46
:1043B0005B1EF9D12B0705D40023521E0DD401F842
:1043C000013BFAE710F8013BCB1A921C03E013F80B
:1043D000015B01F8015B521EF9D5A142D8D3002040
:1043E00070BD02E008C8121F08C1002AFAD1704748
:1043F0007047002001E001C1121F002AFBD1704765
:1044000000000100020001000300010002000100A1
:10441000040001000200010003000100020001008D
:10442000050001000200010003000100020001007C
:10443000040001000200010003000100020001006D
:10444000060001000200010003000100020001005B
:10445000040001000200010003000100020001004D
:10446000050001000200010003000100020001003C
:10447000040001000200010003000100020001002D
:10448000070001000200010003000100020001001A
:10449000040001000200010003000100020001000D
:1044A00005000100020001000300010002000100FC
:1044B00004000100020001000300010002000100ED
:1044C00006000100020001000300010002000100DB
:1044D00004000100020001000300010002000100CD
:1044E00005000100020001000300010002000100BC
:1044F00004000100020001000300010002000100AD
:104500003031323334353637383961626364656649
:10451000003031323334353637383941424344453F
:1045200046000000D1140008D5140008D914000872
:10453000DD14000854450008000000204001000080
:104540008C430008AC4500084001002060260000B4
:10455000F24300081184A24A046809010203040618
:104560000708090C691005500204060822782A2061
:10457000042A806C311A880C2904322032021A98DD
:104580000C2904322432031AA80C2904292029B149
:104590001AB80C2904323032051AC80C29043234F6
:0C45A00029C11AD80C2904025F2C00006D
:0400000508000131BD
:00000001FF
