:020000040800F2
:1000000098270020450100082D0300080D02000874
:100010002B0300088B020008C50500080000000043
:10002000000000000000000000000000DD030008E8
:100030008D020008000000009701000889040008F4
:100040005F0100085F0100085F0100085F01000810
:100050005F0100085F0100085F0100085F01000800
:100060005F0100085F0100085F0100085F010008F0
:100070005F0100085F0100085F0100085F010008E0
:100080005F0100085F0100085F0100085F010008D0
:100090005F0100085F0100085F0100085F010008C0
:1000A0005F0100085F0100085F0100085F010008B0
:1000B0005F0100085F0100085F0100085F010008A0
:1000C0005F0100085F0100085F0100085F01000890
:1000D0005F0100085F0100085F0100085F01000880
:1000E0005F0100085F0100085F0100085F01000870
:1000F0005F0100085F0100085F0100085F01000860
:100100005F0100085F0100085F0100085F0100084F
:100110005F0100085F0100085F0100085F0100083F
:100120005F0100085F0100085F0100085F0100082F
:10013000DFF80CD000F092F8004800478102000878
:10014000982700200648804706480047FEE7FEE75C
:10015000FEE7FEE7FEE7FEE7FEE7FEE7FEE7FEE777
:100160009D04000831010008EFF3108072B670475B
:1001700080F310887047324A1368012B04D04FF087
:10018000010313602F4A10602F4A11602F484FF06F
:10019000805101607047EFF3108272B62848016801
:1001A00091B14FF0000101602648016829B1EFF3D9
:1001B000098121E9F00F0068016023490968096895
:1001C000B1E8F00F81F3098882F310884EF0040E35
:1001D00070471D4908601B494FF00000086018492E
:1001E0004FF0010008601A481A49D0F8002041EA8F
:1001F0000201016015484FF0805101601648006807
:10020000006880F3088861B662B670471EF0040F7C
:100210000CBFEFF30880EFF3098020E9F00F40F8FE
:1002200004ED1EF0040F0CBF80F3088880F30988EA
:1002300000B500F06BFC5DF804EB4EF0040E704767
:1002400038000020300000203400002004ED00E0E1
:1002500020ED00E00000FFFF08ED00E0064C074D38
:1002600006E0E06840F0010394E807009847103486
:10027000AC42F6D3FFF760FF2C1F00084C1F0008AC
:1002800010B501F03DFD002010BDFEE77047F0B550
:10029000CC78002204F00F03E40601D58C782343C8
:1002A0000C784FF00F0C14F0FF0F4FF0010E1BD025
:1002B00005680E880EFA02F42640A64210D1960078
:1002C0000CFA06F725EA070703FA06F5CE783D4350
:1002D000282E02D0482E02D002E0446100E00461E2
:1002E000521C082AE5D305600A88FF2A1CD94468F5
:1002F000002202F108060EFA06F50E882E40AE42E4
:100300000ED196000CFA06F7BC4303FA06F7CE7836
:100310003C43282E00D14561CE78482E00D105619E
:10032000521C082AE5D34460F0BDFEE77047000088
:10033000044A0029916901D0014300E081439161A1
:10034000704700000010024030B5204A5168204B31
:1003500011F00C0103D0042901D0082901D0036059
:1003600012E05168536801F470114FF0020413F465
:10037000803F04EB914102D053689B0301D5154B9C
:1003800000E0134B5943016051680F2303EA111138
:10039000114B5C5C0168E14041605468072505EA47
:1003A00014241C5D21FA04F48460546805EAD42402
:1003B0001B5DD940C1605268032303EA9232064BA9
:1003C0001B1F9A5CB1FBF2F1016130BD00100240CD
:1003D00000127A0000093D0018000020704700005C
:1003E0000CB50022264800920192016841F4803148
:1003F00001604FF4A063016801F40031019100999C
:10040000491C0091019911B900999942F3D10168F1
:10041000890333D5012101911A490A6842F010027B
:100420000A600A6822F003020A600A6842F00202C7
:100430000A604168416041684160416841F48061FF
:100440004160416821F47C114160416841F4E81148
:100450004160016841F08071016001688901FCD54B
:10046000416821F003014160416841F002014160AF
:100470004168C1F381010229FAD10CBD01920CBD82
:10048000001002400020024010B500F057FC01F0BF
:10049000DBF9BDE8104000F063BC00000F4810B568
:1004A000016841F00101016041680D4A114041605D
:1004B00001680C4A11400160016821F4802101604B
:1004C000416821F4FE0141604FF41F018160FFF794
:1004D00087FF05494FF00060086010BD0010024022
:1004E0000000FFF8FFFFF6FE08ED00E0002981891B
:1004F00002D041F4005101E021F4005181817047A4
:100500000246002012880A4200D0012070470000F5
:1005100030B50446008A85B00D464CF6FF710840A0
:10052000E98801432182A0894EF6F3110840A98889
:100530002A8911436A8902431143A181A08A4FF697
:10054000FF410840A9890143A1826846FFF7FCFEEC
:100550001948844201D1039800E00298A189090456
:1005600000EBC00101EB0010296801D5490000E053
:100570008900B0FBF1F06422B0FBF2F109010B0934
:100580006FF018056B4300EB8300A3891D044FF047
:10059000320306D503EBC000B0FBF2F000F0070019
:1005A00005E003EB0010B0FBF2F000F00F00084391
:1005B000208105B030BD000000380140C1F30801C2
:1005C00081807047FEE70000002806D00E4910F039
:1005D000FF0F03D0C0B2085C401C704710F47F4F7F
:1005E00004D0C0F30720085C0930704710F47F0F77
:1005F00004D0C0F30740085C1130704701EB106075
:100600000078193070470000F81D000802E008C8A3
:10061000121F08C1002AFAD170477047002001E07C
:1006200001C1121F002AFBD1704700002DE9FC41D7
:10063000194617460446DDE90832DDE90A6514303B
:10064000406000602762E262C4E909132321184672
:100650001C3400F09BFCD4E903014218D4E90101E9
:10066000104B121F00F04CFB2060A676667600202F
:10067000A562E061E56260612076E06520661C3C71
:10068000009023460190084A194604F14C0001F0FD
:100690007DF90648816809B1204688470020BDE8F9
:1006A000FC81000085150008BD1700080801002026
:1006B00010B5029C24F001044472C0E90712002125
:1006C000C0E9093100EBC1021432491C52601260CA
:1006D0000129F7DB10BD70B50546002405EBC40009
:1006E000143000F0CBFB641C012CF7DB70BD70B53F
:1006F0000446FFF739FDA16F054609B1204688473A
:100700002846BDE87040FFF733BD00001CB514213A
:100710000320CDE900014FF400730022064907A031
:1007200000F009FF0749086018B101F009F800203E
:100730001CBD4FF0FF301CBDD91D000874657374DB
:10074000000000002800002010B500F0EBF8BDE824
:100750001040FFF7DBBF000030B5144B41689A68CA
:10076000114488420FD04C886CB9DC68A1420AD091
:100770001C698C4200D118614C6844604D6802F1DC
:100780000801841A6C508168114481420CD04C8855
:10079000002C09D11C69844200D1196143684B6067
:1007A000891A40680832815030BD00004C0000209A
:1007B0002DE9FF4F9B46DDE90DE50F9CA84663063A
:1007C00001D5454B01E0444B113B9946E30601D569
:1007D00024F00104E30701D0302300E020239A46EF
:1007E0000026A3070BD5002A02DA2D26524206E086
:1007F000630701D52B2602E0230700D5202600231E
:1008000022B930228DF8002001230CE0BBF10A0F41
:1008100014D002F00F0C120919F80CC00DF803C027
:100820005B1C002AF2D1AB4200DD1D46AEEB050297
:1008300014F0110F4FF0200C08D015E00A27B2FB7E
:10084000F7FC07FB1C2CB2FBF7F2E5E746B1002AE8
:1008500006DD521E04E0884201D280F800C0401C30
:10086000171EA2F10102F6DC26B1884200D2067002
:10087000401C521EE40605D508E0884201D280F8EB
:1008800000A0401C141EA2F10102F6DC30242E460A
:100890006D1E9E420ADD884200D20470401CF6E7BD
:1008A000884201D2E55C0570401C00E06C461D1ECC
:1008B000A3F1010308DDB8F1000FF1D104E0884293
:1008C00001D280F800C0401C131EA2F10102F6DC28
:1008D00004B0BDE8F08F0000091F00081CB502201D
:1008E0001421CDE9000103020022044904A000F014
:1008F00022FEBDE81C4000F023BF000049070008AD
:100900006D61696E0000000070B5044C044D02E09A
:1009100020688047241DAC42FAD370BD201F000818
:10092000241F000870B5044C044D02E02068804785
:10093000241DAC42FAD370BD241F0008281F0008F4
:1009400010B5FFF711FC044A5188491C5180BDE8DD
:100950001040FFF70DBC0000F000002010B5FFF7BD
:1009600003FC0B4C6188491E09B2618000290ADC36
:1009700000216180FFF7FCFB6068002807D0BDE81C
:10098000104000F0CFBBBDE81040FFF7F1BB10BD39
:10099000F000002070B5040035D01B4D696801B12E
:1009A0008847A86884422ED3E86884422BD24FF04F
:1009B000FF3116480C3C00F077FC60884FF4F55688
:1009C00010B12088B04208D011A000F00BFA2388A3
:1009D0006288214615A000F005FA0020608026807C
:1009E0002869844200D22C61A9686068611A401AA3
:1009F000A969081AA8612046FFF7AEFEBDE870405D
:100A0000024800F021BC70BD4C00002038230020BB
:100A1000746F206672656520612062616420646184
:100A2000746120626C6F636B3A0A00006D656D3A09
:100A3000203078253038782C207573656420666CFA
:100A400061673A2025642C206D6167696320636FBC
:100A500064653A203078253034780A0000487047C1
:100A6000280100200048704728210020124810B5B6
:100A700000684FF47A71B0FBF1F0B0F1807F0DD2D5
:100A800020F07F414FF0E020491E41610B4AF021E8
:100A900082F8141D002181610721016101F046F9EE
:100AA000FFF732FFFFF7DEFF0446FFF7D7FF2146CF
:100AB000BDE8104000F0ACBC000000200FE000E0FA
:100AC00070B50446FFF73CFF0F4D16E00A2809D128
:100AD0000D212846FFF772FD80212846FFF710FD03
:100AE0000028F9D014F8011B2846FFF767FD802184
:100AF0002846FFF705FD0028F9D020780028E5D129
:100B0000BDE87040FFF72ABF0038014070B50546C8
:100B1000041D2B48016819B12846884700284DD08C
:100B200028A0E16B00F05EF92AA0216A00F05AF9D2
:100B30002CA0616A00F056F92EA0A16A00F052F9CB
:100B400030A0E16A00F04EF932A0216800F04AF9C5
:100B500034A0616800F046F936A0A16800F042F9BF
:100B600038A0E16800F03EF93AA0216900F03AF9B6
:100B70003CA0616900F036F93EA0A16900F032F9AD
:100B800040A0E16900F02EF942A0216B00F02AF9A3
:100B900044A0616B00F026F946A0A16B00F022F999
:100BA0002878400706D500F0A5FD014645A000F0D5
:100BB00019F902E04BA000F015F9FEE770BD000046
:100BC0002C0000207073723A203078253038780A73
:100BD000000000007230303A203078253038780A32
:100BE000000000007230313A203078253038780A21
:100BF000000000007230323A203078253038780A10
:100C0000000000007230333A203078253038780AFE
:100C1000000000007230343A203078253038780AED
:100C2000000000007230353A203078253038780ADC
:100C3000000000007230363A203078253038780ACB
:100C4000000000007230373A203078253038780ABA
:100C5000000000007230383A203078253038780AA9
:100C6000000000007230393A203078253038780A98
:100C7000000000007231303A203078253038780A90
:100C8000000000007231313A203078253038780A7F
:100C9000000000007231323A203078253038780A6E
:100CA00000000000206C723A203078253038780A35
:100CB000000000002070633A203078253038780A30
:100CC0000000000068617264206661756C74206FBA
:100CD0006E207468726561643A2025730D0A0D0AEE
:100CE0000000000068617264206661756C74206F9A
:100CF0006E2068616E646C65720D0A0D0A0000005A
:100D000070B50546121D22F0070040380A4C064611
:100D1000002240F82240521C102AFAD3016200211E
:100D20004162816200F13002C16282E82A004FF024
:100D30008071F16370BD0000EFBEADDE10B5FFF74E
:100D400013FA064904460878401C0870496801B146
:100D500088472046BDE81040FFF70ABA400000204F
:100D600010B5FFF701FA064904460878401E0870DE
:100D7000896801B188472046BDE81040FFF7F8B9FF
:100D80004000002010B50068143800F08DFC0020F1
:100D900010BD2DE9F041054614460E46084600F008
:100DA000E5FC06F11407ACB1012C17D12C680DE05D
:100DB00096F8351094F82120A4F11400914204D241
:100DC0003946143000F033F802E02468AC42EFD129
:100DD000AC4203D13946284600F029F80020BDE88E
:100DE000F08100000FB47F2110B503AB0448029AD4
:100DF00000F04EFE0248FFF763FE10BC5DF814FBE6
:100E0000B82200200268516002680A6001604860F0
:100E100070470268516002680A600160486070476C
:100E20000268516002680A60016048607047426869
:100E3000116042684A604160086070470168814201
:100E400001D101207047002070470168814201D123
:100E50000120704700207047D0E900124A60D0E9B5
:100E600000121160406000607047D0E900124A60D3
:100E7000D0E900121160406000607047D0E90012B4
:100E80004A60D0E9001211604060006070470000C5
:100E90002DE9F047002807D03A4EC01C20F003058A
:100EA0007069854202D90020BDE8F0870C2D00D280
:100EB0000C254FF0FF31344800F0F6F9D6F810C099
:100EC000B1687769ACEB01007A1B55E00C186388B8
:100ED000E3BB63681B1A0C3BAB424CD3626805F161
:100EE0001803121A0C3A4FF001094FF4F55A9A42BE
:100EF0002DD343190C33CA184FF00008A2F800A0F4
:100F0000A2F80280D4F80480C2E901806360A4F8EA
:100F1000029050680C37B84202D001F108028350A9
:100F2000B06928440C30B061F269824200D2F061AD
:100F3000A4F800A0644512D1306942887AB1F26801
:100F400090420CD0406808443061F6E713E0A4F802
:100F500002906068621A801AB2691044E3E70A4896
:100F600000F072F932681AB1294604F10C0090477A
:100F700004F10C0098E760688242A7D8024800F0AC
:100F800063F990E74C0000203823002010B5034699
:100F9000CCB2042A19D3810717D1194644EA042395
:100FA00043EA034306E008C1103A08C141F8083B90
:100FB00041F8043C102AF6D201E008C1121F042AAD
:100FC000FBD20B4601E003F8014B521EFBD210BDD1
:100FD0002DE9F0410F46064600F05AF80546C06874
:100FE000FFF756FF041E1CD00021EA68FFF7CEFF72
:100FF00026720020607208223946204600F0F4F97B
:101000000948016809B120468847FFF7ADF8064650
:1010100004F10C01281DFFF7F5FE3046FFF7A8F894
:101020002046BDE8F08100006C00002070B5044649
:101030000A48416809B12046884700202072FFF71E
:1010400093F8054604F10C00FFF706FF2846FFF76A
:101050008FF82046BDE87040FFF79CBC6C00002074
:1010600070B504460948416809B120468847002008
:101070002072FFF779F8054604F10C00FFF7ECFE4B
:101080002846BDE87040FFF773B800006C000020F0
:10109000074A002102EB01131B78834202D102EBC5
:1010A00001107047491C0729F4DB0020704700003D
:1010B000800000202DE9F041054617460E460846FF
:1010C000FFF7E6FF0446FFF73BFC211D606800E0E8
:1010D00000688842FCD1FFF741FC46F0800028728E
:1010E00008223946284600F07FF90948016809B10D
:1010F00028468847FFF738F8064605F10C01201D01
:10110000FFF780FE3046BDE8F041FFF731B8000040
:101110006C000020007A000601D5012070470020F5
:10112000704700002DE9F041FFF71EF8134E074607
:101130007088D8B9B068FFF747FA1149401E756842
:1011400051F83040143CAC4210D030707460F268FA
:1011500012B12146284690470A48007804F11C0144
:10116000002805F11C0006D0FFF705F83846BDE859
:10117000F041FEF7FDBFFEF7FEFFF7E7F0000020AD
:10118000582300204000002010B50446FEF7ECFF75
:10119000024694F834000E4920F00F00401C84F8F9
:1011A000340094F8350001EBC00104F114004B68E1
:1011B00018604B68A361486006486161A16B836851
:1011C00019438160BDE810401046FEF7D1BF000012
:1011D00058230020F000002070B50546FEF7C4FF3C
:1011E00005F114040146D4E900024260D4E900028A
:1011F0001060AC616C6195F83500084A02EBC000E4
:101200000268824204D10648AB6B82689A438260CE
:10121000BDE870400846FEF7ABBF00005823002031
:10122000F00000202DE9F04116460A461F4605460B
:101230000221FFF73FFF05F11404AC616C61AE833E
:101240006F720020BDE8F0812DE9F0410446154899
:10125000016809B1204688470025FEF785FF06464C
:1012600004F114000746FFF7E9FD38B1A08B4FF6F3
:10127000FF7188420FD2401CA08303E03846FFF77D
:1012800081FD01253046FEF773FF0DB1FFF74AFFE0
:101290000020BDE8F0813046FEF76AFF6FF00200E3
:1012A000F7E700007C0000202DE9F34104462048C8
:1012B000016809B120468847FEF756FF0646A08B15
:1012C00028B1401EA0833046FEF752FF21E001986E
:1012D00038B300F00FFA054600202863627A2946E9
:1012E00004F11400FFF755FD0198002809DD05F110
:1012F0004C0001AA0021074600F010FB384600F020
:1013000059FB3046FEF734FFFFF70CFF286B00282F
:1013100005D10848016809B1204688470020BDE88A
:10132000FC813046FEF724FF6FF00100F7E7000074
:10133000740000207800002008B509A0FFF752FDD6
:101340000AA0FFF74FFD12A0009005230122032100
:1013500012A0FFF747FDBDE8084018A0FFF742BD07
:101360000A205C207C202F0A000000002D2052540F
:10137000202D2020202020546872656164204F7049
:1013800065726174696E672053797374656D0A00C4
:101390004A756C203238203230323100202F207CC8
:1013A000205C202020202025642E25642E2564200A
:1013B0006275696C642025730A00000020323030A9
:1013C00036202D203230323020436F7079726967B9
:1013D00068742062792072742D746872656164206B
:1013E0007465616D0A00000010B5002A07D003463D
:1013F00011F8014B03F8014B2CB1521EF8D110BD6E
:1014000003F8011B00E00021521EF9D110BD0000BD
:101410000A46C11C10B522F0030321F00301182B6A
:1014200021D9A3F118048C421DD35A1A114C183A31
:101430004FF4F5536261A1600B8000200C32C1E9CA
:101440000120488048680844E06003800121418011
:10145000426082600A46002307A10948FFF7E2FEC6
:10146000A068206110BD0146BDE8104005A0FFF74F
:10147000B9BC00004C0000206865617000000000ED
:10148000382300206D656D20696E69742C206572AB
:10149000726F7220626567696E2061646472657341
:1014A0007320307825782C20616E6420656E64206E
:1014B0006164647265737320307825780A000000D7
:1014C00010B50A4A00230A4C5380184604EBC001A9
:1014D000401C496009600828F8DB072010700348A9
:1014E0005360103093604060006010BDF000002039
:1014F0005823002010B5074CA068FFF765F806498F
:10150000401E51F8300014386060BDE810401C30B7
:10151000FEF75FBEF000002058230020044A0020A0
:1015200002EBC001401C49600960F9D0704700001F
:101530002001002070472DE9FF478946DDE90C7640
:10154000824601461D4690460120FFF741FD041EDC
:101550000DD02846FFF79CFC60B103968DE8A100F2
:1015600043464A4651462046FFF760F8204604B0FD
:10157000BDE8F0872046FFF759FD0020F7E700F0AF
:10158000BFB8000070B513480468FEF7EDFD0546CE
:101590002046FFF7ACF82046FFF71EFE042084F833
:1015A000340004F14C0000F0DDF92046FFF7B2FDF5
:1015B00001280BD004F114010748FFF72AFCFFF7BC
:1015C000B1FD2846BDE87040FEF7D2BD2046FFF7CA
:1015D00047FDF4E7F400002000010020054D002441
:1015E00055F8240000B18047641C042CF8D300F0A7
:1015F00003F8F4E7A822002070B5FEF7B5FD054614
:101600000E480168814214D00168A1F11404D1E9A7
:1016100000024260D1E90002106049600960486937
:10162000FFF7B8F92046FFF701FD2846FEF7A0FDB9
:10163000E3E72846BDE87040FEF79ABD00010020B0
:101640001FB5202308480722D9008DE80F0000238A
:10165000064A07A1803800F00FF804B00248BDE840
:101660001040803800F06CB8A8210020DD1500087B
:101670007469646C650000002DE9FF5F92460EAA54
:101680000F4692E870010A46994683460121FFF70A
:1016900011FD8DE870014B46524639465846FEF71B
:1016A000C5FF04B0BDE8F09F70B5044690F8340063
:1016B00000F00F00022802D04FF0FF3070BDFEF79F
:1016C00053FD054604F11400FFF7CFFB04F14C0075
:1016D00000F0C0F92846FEF74BFD2046FFF754FD09
:1016E0000348416809B120468847002070BD0000CA
:1016F000080100200148006870470000F400002045
:10170000F1B5FEF731FD05460C480468204600F0AF
:101710002DF804F14C006A460021064600F0FEF860
:10172000304600F047F92846FEF722FDFFF7FAFCA5
:10173000206B801C00D120630020F8BDF400002045
:1017400010B590F83610012280F835108A40022139
:10175000826380F83410FFF7A7FF0348006808B1E0
:10176000FFF7E0FC002010BDF400002070B5044637
:1017700090F8340000F00F00012802D04FF0FF3045
:1017800070BDFEF7F1FC05462046FFF725FD94F8F5
:10179000340020F00F00801C84F8340004F14C0069
:1017A00000F058F92846FEF7E3FC0348016809B148
:1017B00020468847002070BD0801002010B504466F
:1017C0006FF00100206304F11400FFF74EFB204688
:1017D000FFF7DAFCBDE81040FFF7A4BC70B5FEF7D8
:1017E000C3FC06461348046894F8340000F00F0068
:1017F000012819D1D4E90501884215D004F114005B
:101800000546FFF732FB94F835000B4901EBC000A9
:1018100041680D6041686960456028603046FEF7A8
:10182000A7FCFFF77FFC02E03046FEF7A1FC00209A
:1018300070BD0000F400002058230020014800681B
:10184000704700003C000020094810B50168491CA1
:101850000160FFF74FFF816C491E816403D1416C29
:101860008164FFF7BBFFBDE8104000F003B8000043
:101870003C0000202DE9FC41CDF804D0CDF800D08B
:10188000FFF7DCFF0546FEF76FFC0746224E38E007
:1018900021486FF000410C3004686069143C281A3C
:1018A000884234D2716809B1204688472046FEF745
:1018B00012FF607A810702D420F00100607204F107
:1018C000140188466846FFF7ABFAD4E90710884749
:1018D000FFF7B4FFB168054609B12046884768465E
:1018E000FFF7B3FA68B94046FFF7C8FA607A810794
:1018F00007D5C10705D020F001006072204600F036
:1019000059F805480C30FFF7A0FA0028C0D0384637
:10191000FEF72EFCBDE8FC811401002070B51546D1
:101920000E460446FEF720FC052E17D2DFE806F02F
:101930000503080C1100616A0FE0296861620DE07F
:10194000617A21F0020102E0617A41F002016172E4
:1019500004E0617AC90700D001212960FEF708FC84
:10196000002070BD70B50446FEF7FEFB054620461C
:10197000FEF7B1FE607A20F0010060722846FEF7A3
:10198000F7FB2046FFF76CFB002070BD2DE9F84304
:101990009046DDE908450A461F4606460A21FFF73C
:1019A00089FB23463A46414630460095FEF780FEC5
:1019B000BDE8F8832DE9F8430446FEF7D5FB8046E1
:1019C0002046FEF788FE607A20F0010060721F4812
:1019D000016809B120468847FFF730FF616A1C4F54
:1019E0004318A36200226D4600970CE00668A6EB40
:1019F000C2014969994204D0C91A6FF0004C61458F
:101A000008D345F8226007EBC20155F82200496867
:101A10008842EBD11AB105EB820108304860521CB4
:101A2000F1D00B490C390868401C086004F114011E
:101A30000098FFF7F5F9607A40F0010060724046C7
:101A4000FEF796FB0020BDE8F88300007800002038
:101A50002001002070B50446407AC00713D00B481F
:101A6000016809B120468847FEF77EFB05462046FF
:101A7000FEF731FE607A20F0010060722846FEF722
:101A800077FB002070BD4FF0FF3070BD7C00002060
:101A90002DE9FF4F83B08146044604981F4609EBA9
:101AA00000084FF0FF3B4FF0200AA04503D2C9F1D8
:101AB000FF30D8460490FAE0252803D044457CD274
:101AC00020707AE000250599491C059108782D2899
:101AD00011D02B2812D0202813D0232814D030283E
:101AE00015D00A785E46303A0A2A13D205A800F0CB
:101AF0005FF9064618E045F01005E4E745F00405F7
:101B0000E1E745F00805DEE745F02005DBE745F0B5
:101B10000105D8E72A2807D1491C059140CF002E9E
:101B200002DA764245F0100505985B4601782E29C9
:101B300013D1401C05900178A1F130020A2A04D289
:101B400005A800F035F9034604E02A2904D1401C19
:101B5000059008CF002B00DA0023059A00201178A9
:101B6000682901D06C2902D1521C084605921178CF
:101B70004FF00A0C6F297FD00CDC63291FD004DCE6
:101B8000252975D058290DD179E064297CD069299F
:101B900008D179E0702960D073292AD0752975D0D1
:101BA00078296ED0444501D2252020700598641C08
:101BB0000178D1B3444500D22170641C74E0E8067A
:101BC00008D45146761E002E04DD444500D2217013
:101BD000641CF7E717F8040B444500D22070514607
:101BE00002E0444500D22170641C761E002EF8DC11
:101BF0005AE002CF01B93CA1002000E0401CB042F5
:101C000002D00A5C002AF9D1002B02DD984200DDE7
:101C10001846EA060AD452463346761E834205DD4C
:101C2000444500D22270641CF6E74CE0002206E036
:101C3000444501D20B782370491C521C641C82421B
:101C4000F6DB52463146761E81422DDD444500D2F8
:101C50002270641CF6E70FE00AE0701C02D108262F
:101C600045F001050096CDE9013504CF102316E0BB
:101C70004445A2D2252023E74FF0080C06E045F0AA
:101C800040054FF0100C01E045F002056C2801D032
:101C900068281BD004CF0096CDE901356346414644
:101CA0002046FEF785FD04460598401C05900598E2
:101CB000007800287FF400AF049880B100204445EC
:101CC0000BD220700BE0401E0590EDE737F8040BB7
:101CD00082B2A807DFD512B2DDE708F8010C07B021
:101CE000A4EB0900BDE8F08F284E554C4C290000AC
:101CF0000020704700207047002070470020704788
:101D000010B5FEF731FAFEF7B1FEFFF715FBFFF74E
:101D100005FCFFF7D5FBFEF7E1FDFFF70BFCFFF736
:101D20008FFCFFF7E7FB002010BD000010B586B068
:101D300001210420FEF7FCFA01218803FEF7F8FADE
:101D40004FF40070ADF8100018208DF81300032038
:101D5000154C8DF8120004A92046FEF798FA2115BB
:101D6000ADF8101004218DF8131004A92046FEF7D9
:101D70008EFA4FF4E13000900020ADF80400ADF889
:101D80000600ADF80800ADF80C000C20074CADF8CB
:101D90000A0069462046FEF7BBFB01212046FEF7FC
:101DA000A5FB06B010BD000000080140003801404E
:101DB00010B5024600206FF02F0407E04B1C1360A3
:101DC000097800EB800004EB4000084411680B78B0
:101DD000303B0A2BF2D310BD4FF47A7403A0FFF707
:101DE00001F82046FFF7CBFBF8E700007465737439
:101DF00020636F6465210A000000010002000100F9
:101E000003000100020001000400010002000100C3
:101E100003000100020001000500010002000100B2
:101E200003000100020001000400010002000100A3
:101E30000300010002000100060001000200010091
:101E40000300010002000100040001000200010083
:101E50000300010002000100050001000200010072
:101E60000300010002000100040001000200010063
:101E70000300010002000100070001000200010050
:101E80000300010002000100040001000200010043
:101E90000300010002000100050001000200010032
:101EA0000300010002000100040001000200010023
:101EB0000300010002000100060001000200010011
:101EC0000300010002000100040001000200010003
:101ED00003000100020001000500010002000100F2
:101EE00003000100020001000400010002000100E3
:101EF000030001000200010030313233343536373F
:101F000038396162636465660030313233343536A6
:101F1000373839414243444546000000FD1C000863
:101F2000F51C0008F11C0008F91C00084C1F0008F3
:101F300000000020280100000C06000874200008A2
:101F400028010020702600001C06000800A24A0498
:101F50000000000000000000010203040607080959
:101F60000204060800000000010203040102030449
:101F70000607080900000000000000000000000043
:101F80000000000000000000000000000000000051
:101F90000000000000000000000000000000000041
:101FA0000000000000000000000000000000000031
:101FB0000000000000000000000000000000000021
:101FC0000000000000000000000000000100000010
:101FD0008400002084000020800000000200000037
:101FE0009400002094000020200000000300000066
:101FF000A4000020A4000020240000000400000031
:10200000B4000020B4000020200000000500000003
:10201000C4000020C40000203000000006000000C2
:10202000D4000020D40000203C0000000A00000082
:10203000E4000020E40000202C000000000000006C
:102040000000000000000000000000000000000090
:102050000000000000000000000000000000000080
:102060000000000000000000000000000000000070
:04207000000000006C
:0400000508000131BD
:00000001FF
