:020000040800F2
:10000000F8280020450100088F0400080D020008B0
:100010008D04000899030008310700080000000063
:100020000000000000000000000000003D05000886
:100030009B0300080000000097010008E905000884
:100040005F0100085F0100085F0100085F01000810
:100050005F0100085F0100085F0100085F01000800
:100060005F0100085F0100085F0100085F010008F0
:100070005F0100085F0100085F0100085F010008E0
:100080005F0100085F0100085F0100085F010008D0
:100090005F0100085F0100085F0100085F010008C0
:1000A0005F0100085F0100085F0100085F010008B0
:1000B0005F0100085F0100085F0100085F010008A0
:1000C0005F0100085F0100085F0100085F01000890
:1000D0005F0100085F0100085F0100085F01000880
:1000E0005F0100085F0100085F0100085F01000870
:1000F0005F0100085F0100085F0100085F01000860
:100100005F0100085F0100085F0100085F0100084F
:100110005F0100085F0100085F0100085F0100083F
:100120005F0100085F0100085F0100085F0100082F
:10013000DFF80CD000F0EEF8004800478F0300080D
:10014000F82800200648804706480047FEE7FEE7FB
:10015000FEE7FEE7FEE7FEE7FEE7FEE7FEE7FEE777
:10016000FD05000831010008EFF3108072B67047FA
:1001700080F310887047324A1368012B04D04FF087
:10018000010313602F4A10602F4A11602F484FF06F
:10019000805101607047EFF3108272B62848016801
:1001A00091B14FF0000101602648016829B1EFF3D9
:1001B000098121E9F00F0068016023490968096895
:1001C000B1E8F00F81F3098882F310884EF0040E35
:1001D00070471D4908601B494FF00000086018492E
:1001E0004FF0010008601A481A49D0F8002041EA8F
:1001F0000201016015484FF0805101601648006807
:10020000006880F3088861B662B670471EF0040F7C
:100210000CBFEFF30880EFF3098020E9F00F40F8FE
:1002200004ED1EF0040F0CBF80F3088880F30988EA
:1002300000B501F0E9FE5DF804EB4EF0040E7047E6
:1002400038000020300000203400002004ED00E0E1
:1002500020ED00E00000FFFF08ED00E040EA0103B0
:100260009B0703D009E008C9121F08C0042AFAD26C
:1002700003E011F8013B00F8013B521EF9D2704730
:10028000D2B201E000F8012B491EFBD270470022D8
:10029000F6E710B513460A4604461946FFF7F0FF85
:1002A000204610BD421E12F8013F002BFBD111F871
:1002B000013B02F8013B002BF9D1704710B5044611
:1002C00004E00B7800F8013B03B1491C521EF8D240
:1002D000204610BD421C10F8011B0029FBD1801ADA
:1002E0007047034611F8012B00F8012B002AF9D1C1
:1002F0001846704730B505460020034600E05B1CF9
:10030000934205D2EC5CC85C201A01D1002CF6D1D6
:1003100030BD0000064C074D06E0E06840F00103E8
:1003200094E8070098471034AC42F6D3FFF704FF77
:10033000443A0008643A000870B58C1810F8015B64
:1003400015F0070301D110F8013B2A1106D110F86E
:10035000012B03E010F8016B01F8016B5B1EF9D172
:100360002B0705D40023521E0DD401F8013BFAE7F8
:1003700010F8013BCB1A921C03E013F8015B01F863
:10038000015B521EF9D5A142D8D3002070BD10B533
:1003900002F082FF002010BDFEE77047F0B5CC7878
:1003A000002204F00F03E40601D58C7823430C7877
:1003B0004FF00F0C14F0FF0F4FF0010E1BD005682B
:1003C0000E880EFA02F42640A64210D196000CFACE
:1003D00006F725EA070703FA06F5CE783D43282EEF
:1003E00002D0482E02D002E0446100E00461521CB9
:1003F000082AE5D305600A88FF2A1CD94468002230
:1004000002F108060EFA06F50E882E40AE420ED115
:1004100096000CFA06F7BC4303FA06F7CE783C4385
:10042000282E00D14561CE78482E00D10561521C9E
:10043000082AE5D34460F0BD0161704738B5012159
:10044000482000F025F82024ADF8004010208DF859
:10045000030003200B4D8DF8020069462846FFF784
:100460009DFFADF80040084C69462046FFF796FF17
:1004700020212846FFF7E0FF20212046FFF7DCFF80
:1004800038BD0000000C014000180140FEE7704735
:10049000044A0029916901D0014300E08143916140
:1004A000704700000010024030B5204A5168204BD0
:1004B00011F00C0103D0042901D0082901D00360F8
:1004C00012E05168536801F470114FF0020413F404
:1004D000803F04EB914102D053689B0301D5154B3B
:1004E00000E0134B5943016051680F2303EA1111D7
:1004F000114B5C5C0168E14041605468072505EAE6
:1005000014241C5D21FA04F48460546805EAD424A0
:100510001B5DD940C1605268032303EA9232064B47
:100520001B1F9A5CB1FBF2F1016130BD001002406B
:1005300000127A0000093D001800002070470000FA
:100540000CB50022264800920192016841F48031E6
:1005500001604FF4A063016801F40031019100993A
:10056000491C0091019911B900999942F3D1016890
:10057000890333D5012101911A490A6842F010021A
:100580000A600A6822F003020A600A6842F0020266
:100590000A604168416041684160416841F480619E
:1005A0004160416821F47C114160416841F4E811E7
:1005B0004160016841F08071016001688901FCD5EA
:1005C000416821F003014160416841F0020141604E
:1005D0004168C1F381010229FAD10CBD01920CBD21
:1005E000001002400020024010B501F029FE02F088
:1005F000F7FBBDE8104001F035BE00000F4810B514
:10060000016841F00101016041680D4A11404160FB
:1006100001680C4A11400160016821F480210160E9
:10062000416821F4FE0141604FF41F018160FFF732
:1006300087FF05494FF00060086010BD00100240C0
:100640000000FFF8FFFFF6FE08ED00E0C94301805F
:1006500070470029818902D041F4005101E021F462
:100660000051818170470246002012880A4200D062
:100670000120704730B50446008A85B00D464CF61F
:10068000FF710840E98801432182A0894EF6F311E9
:100690000840A9882A8911436A8902431143A1812C
:1006A000A08A4FF6FF410840A9890143A18268460C
:1006B000FFF7FAFE1948844201D1039800E002983E
:1006C000A189090400EBC00101EB0010296801D5E4
:1006D000490000E08900B0FBF1F06422B0FBF2F1C8
:1006E00009010B096FF018056B4300EB8300A38928
:1006F0001D044FF0320306D503EBC000B0FBF2F04F
:1007000000F0070005E003EB0010B0FBF2F000F092
:100710000F000843208105B030BD000000380140C3
:100720008088C0F308007047C1F3080181807047DA
:10073000FEE70000002806D00E4910F0FF0F03D09E
:10074000C0B2085C401C704710F47F4F04D0C0F367
:100750000720085C0930704710F47F0F04D0C0F305
:100760000740085C1130704701EB106000781930C9
:10077000704700009634000802E008C8121F08C144
:10078000002AFAD170477047002001E001C1121F12
:10079000002AFBD1704700002DE9F74F88B0894649
:1007A0000746002500E06D1C785D202803D009284D
:1007B00001D04D45F7D34FF0FF3B7DB31A48A84613
:1007C0000026AD1DDFF864A0046810E0062218A121
:1007D0002068FFF78FFD48B9206842463946801DE2
:1007E000FFF788FD10B92068405DC0B10C34DAF81D
:1007F00000008442EAD38EB120216846FFF747FD0E
:100800006A464946384601F07FF938B16946B04733
:100810000A99086000200BB0BDE8F08F01E0A668DF
:10082000E9E75846F7E70000280100202C010020E6
:100830005F5F636D645F00002DE9FC411946174658
:100840000446DDE90832DDE90A65143040600060E5
:100850002762E262C4E90913232118461C3401F01F
:100860003EFED4E903014218D4E90101104B121FE6
:1008700001F0C8FC2060A67666760020A562E061E3
:10088000E56260612076E06520661C3C00902346AE
:100890000190084A194604F14C0002F043FB064857
:1008A000816809B1204688470020BDE8FC8100002E
:1008B000D92A0008212D00080801002010B5029C4B
:1008C00024F001044472C0E907120021C0E9093193
:1008D00000EBC1021432491C526012600129F7DB9F
:1008E00010BD70B50546002405EBC400143001F0BE
:1008F00057FD641C012CF7DB70BD70B50446FFF793
:1009000033FCA16F054609B1204688472846BDE85B
:100910007040FFF72DBC000010B51BA001F0E4FCF7
:100920001C4C21781CA001F0DFFC2078C00702D00D
:100930001FA001F0D9FC2078800702D51FA001F08C
:10094000D3FC2078400702D51FA001F0CDFC207811
:10095000000702D520A001F0C7FC2078C00602D510
:1009600020A001F0C1FC2078000607D509480F300F
:100970000168BDE810401DA001F0B6BCBDE8104004
:100980001EA001F0B1BC0000627573206661756C39
:10099000743A0A0029ED00E05343425F4346535244
:1009A0005F424653523A30782530325820000000DA
:1009B00049425553455252200000000050524543D1
:1009C0004953455252200000494D50524543495326
:1009D0004552522000000000554E53544B45525290
:1009E0002000000053544B45525220005343422DE7
:1009F0003E424641523A253038580A000A0000006B
:100A000010B500F0D5FB002010BD10B500F0A8FD1A
:100A1000002010BD104810B5416991F821108907D8
:100A200003D40E490020087013E0016921B180222F
:100A30000A48FFF743FC0CE001F064F808B108A194
:100A400000E009A10548FFF74CFC09A10348FFF7A6
:100A500029FC024810BD000028010020702400205D
:100A60006D7368200000000066696E7368200000E6
:100A70003E0000000349496911F8212F60F341024B
:100A80000A70704728010020014AC2E9000170473E
:100A9000280100207CB516491648FFF7F5FF78219C
:100AA000012001F07DF9144D6861D0B10A211520B3
:100AB000CDE900014FF480630022104910A001F03D
:100AC000E4FF044600231A460FA1686901F054FEB2
:100AD0000120FFF7CFFF14B1204602F0E3F8002019
:100AE0007CBD0BA001F000FC4FF0FF307CBD00008E
:100AF000443A00083C39000828010020290B00086E
:100B0000747368656C6C0000736872780000000094
:100B10006E6F206D656D6F727920666F72207368DD
:100B2000656C6C0A00000000984E706910F8211F77
:100B300041F001010170FFF76DFF01F0D5FB0025C9
:100B400001F01AFA0400FBD41B2C07D0706990F84E
:100B50002010012907D002290ED017E07169012069
:100B600081F82000ECE75B2C02D080F820500DE0EB
:100B7000022180F82010E3E780F82050412CDFD0DC
:100B8000422CDDD0442C38D0432C42D0002CD7D07E
:100B9000FF2CD5D0092C4DD07F2C74D0082C72D0CE
:100BA0000D2C6FD00A2CFCD0B0F87210502901D354
:100BB000A0F87250B0F87430B0F872108B427CD24A
:100BC000CA1A00F1220123301944184401F070FCC4
:100BD0007069B0F8741022300C54706990F82110CC
:100BE000C90706D0B0F874102230014468A001F0A3
:100BF0007BFB7069B0F87440A4E0B0F87400002882
:100C00009ED064A001F070FB706930F8741F491E1B
:100C10000EE0B0F87410B0F87220914290D22230F9
:100C2000095C5DA001F060FB706930F8741F491C1D
:100C3000018085E7002403E056A001F055FB641C09
:100C40007069B0F87400A042F6DC746953A02234D5
:100C500001F04AFB00F056FF012802D1204600F0C7
:100C60008DFEFFF7D7FE014622464DA001F03CFB6A
:100C700070692230FFF72EFB716921F8720F4880EE
:100C80005EE700E03DE0B0F87420002AD1D0B0F873
:100C90007210521E491E89B293B2A0F87210A0F8C9
:100CA0007430994224D9CA1A00F123012230194420
:100CB000184401F0FDFB706900E049E0B0F87210E3
:100CC00022300D547069B0F874102230014436A0FF
:100CD00001F00AFB7069B0F8744003E02DA001F048
:100CE00003FB641C7069B0F87200A042A1DBF5E759
:100CF0002FA001F0F9FA7069B0F8721022300D548B
:100D00001EE700F0FFFE01280DD1706990F8210068
:100D1000C00702D021A001F0E7FA7069B0F87210A4
:100D2000223000F081FEFFF775FE01F0DDFA7069F8
:100D300050212230FFF7ABFA706922E015A001F0D4
:100D4000D3FA641C7069B0F87200A042F6DC0AE0C5
:100D500022300C54706990F82100C00703D021465E
:100D60000DA001F0C1FA7069B0F87210491C89B287
:100D7000A0F87210B0F87420521CA0F8742050290A
:100D8000BED320F8725F4580DAE60000280100201B
:100D90002573000008000000256300000A00000021
:100DA000257325730000000008257320200800002B
:100DB0000820080010B5124C2068800702D511A049
:100DC00001F092FA2068400011D50D48C01E00784D
:100DD00008B1FFF7A1FD0A48001F007808B100F034
:100DE00061FD0748801E008808B102F0E7FA20681C
:100DF000002804DABDE8104008A001F075BA10BD63
:100E00002CED00E06661696C656420766563746F43
:100E1000722066657463680A00000000646562758C
:100E200067206576656E740A0000000010B502A0A8
:100E300001F05AFA002010BD48656C6C6F205254C6
:100E40002D546872656164210A00000070B50CA021
:100E500001F04AFA0F48104D04680BE002220FA17E
:100E60002068FFF747FA20B1D4E900120CA001F086
:100E70003BFA0C3428688442F0D3002070BD000097
:100E80002D2D46756E6374696F6E204C6973743ACC
:100E90000A000000280100202C0100205F5F0000F4
:100EA000252D313673202D2D2025730A00000000DA
:100EB0002DE9F04190B000262BA4082302AA0421BA
:100EC0000AA800F08DF808272246394628A001F02C
:100ED0000BFA384600F080FE2EA001F005FA0AA9B0
:100EE000304600F08FF80646002420E002A850F8B3
:100EF00024500C3DFFF738F9297A9DF8302021F075
:100F00008001914202D0FFF733F90FE0FFF730F98B
:100F100005F11400804601F021FA88B1E8690090DB
:100F20002B460822394623A001F0DEF9641C0E98F6
:100F3000A042DBDC002ED2D110B00020BDE8F08151
:100F4000404601F012FAE969CDE900102B4608226B
:100F500039461DA001F0C8F9404602F0B3F90CA0D3
:100F600001F0C2F9E2E700006576656E74000000EA
:100F7000252D2A2E73202020202020736574202008
:100F8000202073757370656E642074687265616487
:100F90000A00000020202D2D2D2D2D2D2D2D2D2D45
:100FA000202D2D2D2D2D2D2D2D2D2D2D2D2D2D0AA1
:100FB00000000000252D2A2E2A73202030782530AD
:100FC000387820300A000000252D2A2E2A73202090
:100FD00030782530387820253033643A000000001E
:100FE0002DE9F04104461E4617460D46084601F01D
:100FF000F9FA001D2060257200206760C4E90360D3
:10100000BDE8F0812DE9F04100260D460E61C9686A
:1010100049B1297A39B12F6840B10446FFF7A4F8E5
:10102000014636B111E00020BDE8F0813C460126C2
:10103000F4E7A4F10C002A7A007A20F080009042B4
:1010400003D00846FFF794F8EDE7686800262468A7
:10105000BC4201D1002404E010C0EA68761CB24210
:10106000F5D10846FFF784F820462E61DCE7000042
:101070002DE9F04190B000262FA4082303AA0521F2
:101080000BA8FFF7ADFF0827224639462CA001F038
:101090002BF9384600F0A0FD32A001F025F90BA98C
:1010A0003046FFF7AFFF0646002527E003A850F8BB
:1010B00025400C3CFFF758F8217A9DF8342021F0A8
:1010C0008001914202D0FFF753F816E0FFF750F885
:1010D00004F11400804601F041F90028404616D082
:1010E00001F043F9218C628CCDE900210290234666
:1010F0000822394622A001F0F7F86D1C0F98A8428B
:10110000D4DC002ECBD110B00020BDE8F08101F07E
:101110002CF9218C628CCDE9002102902346082213
:1011200039461DA001F0E0F8404602F0CBF819A0C6
:1011300001F0DAF8E1E700006D61696C626F780038
:10114000252D2A2E7320656E7472792073697A6555
:101150002073757370656E64207468726561640ACB
:1011600000000000202D2D2D2D20202D2D2D2D2097
:101170002D2D2D2D2D2D2D2D2D2D2D2D2D2D0A00EF
:10118000252D2A2E2A732025303464202025303442
:10119000642025640A000000252D2A2E2A732025AC
:1011A0003034642020253034642025643A00000067
:1011B00010B5074C07A0616901F096F80AA0A16973
:1011C00001F092F8E169BDE810400CA001F08CB884
:1011D0004C000020746F74616C206D656D6F7279C6
:1011E0003A2025640A00000075736564206D656D02
:1011F0006F7279203A2025640A0000006D617869D9
:101200006D756D20616C6C6F6361746564206D65D4
:101210006D6F72793A2025640A0000002DE9F041D3
:1012200090B000262DA4082302AA06210AA8FFF7E1
:10123000D7FE0827224639462BA001F055F838463C
:1012400000F0CAFC2FA001F04FF80AA93046FFF7C2
:10125000D9FE0646002425E002A850F824500C3D93
:10126000FEF782FF297A9DF8302021F0800191421B
:1012700002D0FEF77DFF14E0FEF77AFF05F11400BF
:10128000804601F06BF80028404614D001F06DF85C
:10129000A98CCDE900102B46082239461FA001F089
:1012A00023F8641C0E98A042D6DC002ECDD110B0DD
:1012B0000020BDE8F08101F058F8A98CCDE90010BC
:1012C0002B46082239461AA001F00EF8404601F0DC
:1012D000F9FF1CA001F008F8E3E700006D736771E7
:1012E0007565756500000000252D2A2E7320656E3A
:1012F0007472792073757370656E6420746872659A
:1013000061640A00202D2D2D2D20202D2D2D2D2D19
:101310002D2D2D2D2D2D2D2D2D0A0000252D2A2E84
:101320002A732025303464202025640A0000000040
:10133000252D2A2E2A732025303464202025643A56
:10134000000000000A000000F0B591B0002623A4C0
:10135000082304AA03210CA8FFF742FE082722460F
:10136000394620A000F0C0FF384600F035FC26A02A
:1013700000F0BAFF0CA93046FFF744FE06460025F0
:1013800023E004A850F825400C3CFEF7EDFE217A3E
:101390009DF8382021F08001914202D0FEF7E8FE4E
:1013A00012E0FEF7E5FE04F1140000F0DEFFE17F3D
:1013B000226A0823CDE90032CDE902102346082233
:1013C000394619A000F090FF6D1C1098A842D8DC97
:1013D000002ECFD111B00020F0BD00006D757465F6
:1013E00078000000252D2A2E732020206F776E654F
:1013F000722020686F6C642073757370656E642052
:101400007468726561640A00202D2D2D2D2D2D2DFF
:101410002D202D2D2D2D202D2D2D2D2D2D2D2D2D16
:101420002D2D2D2D2D0A0000252D2A2E2A73202545
:101430002D382E2A7320253034642025640A0000BC
:101440002DE9F04190B000262DA4082302AA022124
:101450000AA8FFF7C5FD0827224639462BA000F051
:1014600043FF384600F0B8FB2FA000F03DFF0AA96B
:101470003046FFF7C7FD0646002425E002A850F8D5
:1014800024500C3DFEF770FE297A9DF8302021F0A3
:101490008001914202D0FEF76BFE14E0FEF768FE79
:1014A00005F11400804600F059FF0028404614D092
:1014B00000F05BFFA98BCDE900102B4608223946CE
:1014C0001FA000F011FF641C0E98A042D6DC002E75
:1014D000CDD110B00020BDE8F08100F046FFA98B0F
:1014E000CDE900102B460822394619A000F0FCFE79
:1014F000404601F0E7FE0BA000F0F6FEE3E7000037
:1015000073656D6170686F7265000000252D2A2E6D
:1015100073207620202073757370656E6420746864
:10152000726561640A000000202D2D2D202D2D2DC7
:101530002D2D2D2D2D2D2D2D2D2D2D0A00000000B2
:10154000252D2A2E2A7320253033642025640A0095
:10155000252D2A2E2A7320253033642025643A0055
:101560002DE9F041B0B000263CA4082322AA0121B5
:101570002AA8FFF735FD0820804601462246394853
:1015800000F0B2FE404600F027FB37A000F0ACFEB2
:101590002AA93046FFF736FD0646002554E022A86A
:1015A00050F825400C3CFEF7DFFD0746207A9DF8F9
:1015B000B01020F08000884203D03846FEF7D8FDF6
:1015C00041E08022214602A8FEF748FE3846FEF799
:1015D000CFFD94F83500009023460822414632A002
:1015E00000F082FE94F8340000F00F00012807D0CC
:1015F000022807D040B1042808D0032808D00AE008
:101600002CA006E02EA004E030A002E032A000E012
:1016100034A000F069FEA06A014600E0491C0A7887
:10162000232AFBD0E26A091A511A64235943B1FBF9
:10163000F2F3276BA16CCDE90017E169401A81181C
:101640002BA000F051FE6D1C2E98A842A7DC002EA6
:101650009ED130B00020BDE8F08100007468726552
:1016600061640000B8350008202D2D2D20202D2D7F
:101670002D2D2D2D2D202D2D2D2D2D2D2D2D2D2DA7
:10168000202D2D2D2D2D2D2D2D2D2D20202D2D2DB1
:101690002D2D2D20202D2D2D2D2D2D2D2D2D2D20A1
:1016A0002D2D2D0A00000000252D2A2E2A7320251D
:1016B00033642000207265616479202000000000FE
:1016C0002073757370656E640000000020696E6998
:1016D000742020200000000020636C6F73652020C0
:1016E000000000002072756E6E696E6700000000D9
:1016F0002030782530387820307825303878202010
:1017000020202530326425252020203078253038CF
:101710007820253033640A00F0B58FB0002626A467
:10172000082302AA0A210AA8FFF75AFC0827224622
:10173000394623A000F0D8FD384600F04DFA2AA023
:1017400000F0D2FD0AA93046FFF75CFC06460024F3
:1017500024E002A850F824500C3DFEF705FD297A3C
:101760009DF8302021F08001914202D0FEF700FD6B
:1017700013E0FEF7FDFCD5E90901CDE900012B4698
:101780000822394621A000F0AFFD687AC00701D0D9
:1017900024A000E026A000F0A7FD641C0E98A04243
:1017A000D7DC002ECED101F015FB014624A000F0BD
:1017B0009BFD0FB00020F0BD74696D6572000000E4
:1017C000252D2A2E732020706572696F646963204D
:1017D000202074696D656F757420202020202020E2
:1017E000666C61670A000000202D2D2D2D2D2D2DFA
:1017F0002D2D2D202D2D2D2D2D2D2D2D2D2D202D33
:101800002D2D2D2D2D2D2D2D2D2D0A00252D2A2E62
:101810002A73203078253038782030782530387891
:10182000200000006163746976617465640A0000D9
:1018300064656163746976617465640A0000000020
:1018400063757272656E74207469636B3A307825C3
:101850003038780A000000001CB514210320CDE9BF
:1018600000014FF400730022064907A001F00DF9B2
:101870000749086018B101F015FA00201CBD4FF0AF
:10188000FF301CBDA13300087465737400000000B4
:101890002800002010B500F09FFABDE81040FFF7C7
:1018A000DBBF000010B518A000F01EFD1B4C217816
:1018B0001BA000F019FD2078C00702D01EA000F088
:1018C00013FD2078800702D51EA000F00DFD2078C2
:1018D000000702D51EA000F007FD2078C00602D543
:1018E0001EA000F001FD2078000607D50B480C3043
:1018F0000168BDE810401CA000F0F6BCBDE8104037
:101900001D4800F0F1BC00006D656D206D616E61D9
:101910006765206661756C743A0A000028ED00E086
:101920005343425F434653525F4D4653523A3078D9
:1019300025303258200000004941434356494F4C5E
:10194000200000004441434356494F4C2000000012
:101950004D554E53544B4552522000004D53544B5D
:1019600045525220000000005343422D3E4D4D4150
:10197000523A253038580A002C3400082DE9F04737
:101980008146002500782E4620B12248DFF8888065
:10199000046830E0BDE8F0470021084600F076B862
:1019A00006221EA12068FEF7A5FC18BB2768484642
:1019B000BF1DFEF78FFC024639464846FEF79AFCEB
:1019C000C0B925B93E463846FEF784FC054639467F
:1019D000304601E0401C491C03781BB10A780AB16B
:1019E0009342F7D0801BA84200DA054639460DA085
:1019F00000F07AFC0C34D8F800008442D0D3002EDA
:101A000006D02A4631464846BDE8F04700F096BF6A
:101A1000BDE8F087280100202C0100205F5F636D86
:101A2000645F000025730A0038B5054601E0491ED1
:101A30006D1C59B128782028F9D00928F7D06A46BA
:101A40002846FEF7A9FE18B12C4604E0002038BD58
:101A5000009838BD641C2078202801D00028F9D1D6
:101A600000202070294603A000F03EFC4FF0FF301C
:101A700038BD000025733A20636F6D6D616E642080
:101A80006E6F7420666F756E642E0A0070B50EA0BE
:101A900000F02AFC1348144D04680CE0062213A140
:101AA0002068FEF727FC28B9D4E9001211A0891D8F
:101AB00000F01AFC0C3428688442EFD310A000F028
:101AC00013FC002070BD000052542D5468726561F3
:101AD00064207368656C6C20636F6D6D616E6473F8
:101AE0003A0A0000280100202C0100205F5F636D8E
:101AF000645F0000252D313673202D2025730A00E8
:101B00000A0000000120704770B5002315461C46EE
:101B10001E464AE000F8016B5B1C0278202A01D0C7
:101B2000092A01D18B42F5D3082C10D321A000F053
:101B3000DBFB002605E055F8261026A000F0D4FBBC
:101B4000761CA642F7D322A000F0CEFB2FE08B42FA
:101B50002DD2D2B2222A03D045F82400641C1BE007
:101B6000401C45F824005B1C641C08E05C2A04D17E
:101B70004278222A01D1401C5B1C401C5B1C02786D
:101B8000222A01D08B42F1D38B4210D200F8016B94
:101B90005B1C0AE0401C5B1C0278202A03D0092A47
:101BA00001D08B42F6D38B4201D28B42B5D3204673
:101BB00070BD0000546F6F206D616E792061726797
:101BC000732021205765206F6E6C79205573653A1C
:101BD0000A0000002573200010B5044602E003A0AF
:101BE00000F082FB641EFAD210BD00002D00000040
:101BF00030B5144B41689A68114488420FD04C8824
:101C00006CB9DC68A1420AD01C698C4200D1186111
:101C10004C6844604D6802F10801841A6C50816878
:101C2000114481420CD04C88002C09D11C6984429B
:101C300000D1196143684B60891A406808328150AD
:101C400030BD00004C0000202DE9FF4F9B46DDE930
:101C50000DE50F9CA846630601D5454B01E0444BBA
:101C6000113B9946E30601D524F00104E30701D0B6
:101C7000302300E020239A460026A3070BD5002A34
:101C800002DA2D26524206E0630701D52B2602E038
:101C9000230700D52026002322B930228DF800200A
:101CA00001230CE0BBF10A0F14D002F00F0C120953
:101CB00019F80CC00DF803C05B1C002AF2D1AB422E
:101CC00000DD1D46AEEB050214F0110F4FF0200CA5
:101CD00008D015E00A27B2FBF7FC07FB1C2CB2FB6F
:101CE000F7F2E5E746B1002A06DD521E04E088421D
:101CF00001D280F800C0401C171EA2F10102F6DCE0
:101D000026B1884200D20670401C521EE40605D55A
:101D100008E0884201D280F800A0401C141EA2F105
:101D20000102F6DC30242E466D1E9E420ADD8842FA
:101D300000D20470401CF6E7884201D2E55C0570D1
:101D4000401C00E06C461D1EA3F1010308DDB8F144
:101D5000000FF1D104E0884201D280F800C0401C9D
:101D6000131EA2F10102F6DC04B0BDE8F08F000002
:101D7000A73500081CB514210A20CDE900014FF455
:101D800000730022034904A000F07FFEBDE81C4060
:101D900000F088BF951800086D61696E00000000B2
:101DA00070B54843044600F005FB050003D0224609
:101DB000002100F094FB284670BD000070B5044C73
:101DC000044D02E020688047241DAC42FAD370BD68
:101DD0002C3900083039000870B5044C044D02E07D
:101DE00020688047241DAC42FAD370BD303900080A
:101DF0003839000810B5FEF7B7F9044A5188491C74
:101E00005180BDE81040FEF7B3B90000F00000209B
:101E100010B5FEF7A9F90B4C6188491E09B2618023
:101E200000290ADC00216180FEF7A2F96068002821
:101E300007D0BDE8104000F01FBCBDE81040FEF721
:101E400097B910BDF000002070B5040035D01B4DCF
:101E5000696801B18847A86884422ED3E868844243
:101E60002BD24FF0FF3116480C3C00F0C7FC6088C5
:101E70004FF4F55610B12088B04208D011A000F000
:101E800033FA23886288214615A000F02DFA00203D
:101E9000608026802869844200D22C61A96860682D
:101EA000611A401AA969081AA8612046FFF7A0FE26
:101EB000BDE87040024800F071BC70BD4C000020CD
:101EC00050230020746F2066726565206120626176
:101ED00064206461746120626C6F636B3A0A000075
:101EE0006D656D3A203078253038782C2075736513
:101EF0006420666C61673A2025642C206D616769F7
:101F00006320636F64653A203078253034780A00A6
:101F100000487047400100200048704740210020E1
:101F2000134810B500684FF47A71B0FBF1F0B0F1CE
:101F3000807F0DD220F07F414FF0E020491E4161AB
:101F40000C4AF02182F8141D0021816107210161F2
:101F500001F0D0F9FEF772FAFFF730FFFFF7DCFF70
:101F60000446FFF7D5FF2146BDE8104000F0FABC5B
:101F7000000000200FE000E070B50F4D4FF0FF347F
:101F800020212846FEF76FFB40B12846FEF7C8FB2C
:101F9000044620212846FEF759FB0BE0082128467D
:101FA000FEF761FB18B108212846FEF74FFB0A2017
:101FB00000F024FEE0B270BD0038014070B5044668
:101FC000FFF718FF0F4D16E00A2809D10D2128460A
:101FD000FEF7AAFB80212846FEF745FB0028F9D032
:101FE00014F8011B2846FEF79FFB80212846FEF7C8
:101FF0003AFB0028F9D020780028E5D1BDE87040F0
:10200000FFF706BF0038014070B50546041D2D4896
:10201000016819B128468847002851D02AA0E16BF1
:1020200000F062F92CA0216A00F05EF92EA0616A2E
:1020300000F05AF930A0A16A00F056F932A0E16A26
:1020400000F052F934A0216800F04EF936A0616822
:1020500000F04AF938A0A16800F046F93AA0E1681A
:1020600000F042F93CA0216900F03EF93EA0616910
:1020700000F03AF940A0A16900F036F942A0E16908
:1020800000F032F944A0216B00F02EF946A0616BFC
:1020900000F02AF948A0A16B00F026F92878400743
:1020A00008D500F0D9FD014647A000F01DF9FFF763
:1020B00057FA02E04CA000F017F9FEF77BFEFEE7AE
:1020C00070BD00002C0000207073723A203078251B
:1020D0003038780A000000007230303A203078251D
:1020E0003038780A000000007230313A203078250C
:1020F0003038780A000000007230323A20307825FB
:102100003038780A000000007230333A20307825E9
:102110003038780A000000007230343A20307825D8
:102120003038780A000000007230353A20307825C7
:102130003038780A000000007230363A20307825B6
:102140003038780A000000007230373A20307825A5
:102150003038780A000000007230383A2030782594
:102160003038780A000000007230393A2030782583
:102170003038780A000000007231303A203078257B
:102180003038780A000000007231313A203078256A
:102190003038780A000000007231323A2030782559
:1021A0003038780A00000000206C723A2030782520
:1021B0003038780A000000002070633A203078251B
:1021C0003038780A0000000068617264206661752A
:1021D0006C74206F6E207468726561643A20257398
:1021E0000D0A0D0A000000006861726420666175C6
:1021F0006C74206F6E2068616E646C65720D0A0DE0
:102200000A00000070B50546121D22F00700403894
:102210000A4C0646002240F82240521C102AFAD3EB
:10222000016200214162816200F13002C16282E8F4
:102230002A004FF08071F16370BD0000EFBEADDE8B
:1022400010B5FDF791FF064904460878401C087058
:10225000496801B188472046BDE81040FDF788BFB6
:102260004000002010B5FDF77FFF064904460878BE
:10227000401E0870896801B188472046BDE81040BB
:10228000FDF776BF4000002010B50068143800F05C
:10229000BDFC002010BD2DE9F041054614460E4658
:1022A000084600F015FD06F11407ACB1012C17D15A
:1022B0002C680DE096F8351094F82120A4F1140054
:1022C000914204D23946143000F033F802E0246819
:1022D000AC42EFD1AC4203D13946284600F029F890
:1022E0000020BDE8F08100000FB47F2110B503ABE2
:1022F0000448029A00F098FE0248FFF75FFE10BC07
:102300005DF814FBD02200200268516002680A6068
:102310000160486070470268516002680A600160AD
:10232000486070470268516002680A600160486056
:1023300070474268116042684A60416008607047B7
:102340000168814201D10120704700207047016877
:10235000814201D10120704700207047016881420D
:1023600001D101207047002070470246002011462D
:1023700000E0401C09689142FBD17047D0E900128F
:102380004A60D0E900121160406000607047D0E9F7
:1023900000124A60D0E9001211604060006070478E
:1023A000D0E900124A60D0E900121160406000607C
:1023B000704700002DE9F047002807D03A4EC01CB6
:1023C00020F003057069854202D90020BDE8F0873E
:1023D0000C2D00D20C254FF0FF31344800F00EFADE
:1023E000D6F810C0B1687769ACEB01007A1B55E0F4
:1023F0000C186388E3BB63681B1A0C3BAB424CD3DD
:10240000626805F11803121A0C3A4FF001094FF4F3
:10241000F55A9A422DD343190C33CA184FF00008CD
:10242000A2F800A0A2F80280D4F80480C2E90180DA
:102430006360A4F8029050680C37B84202D001F1F2
:1024400008028350B06928440C30B061F2698242BE
:1024500000D2F061A4F800A0644512D1306942882E
:102460007AB1F26890420CD0406808443061F6E7D7
:1024700013E0A4F802906068621A801AB2691044EE
:10248000E3E70A4800F08AF932681AB1294604F1F4
:102490000C00904704F10C0098E760688242A7D8CE
:1024A000024800F07BF990E74C0000205023002008
:1024B00010B5034681420FD28C189C420CD981186A
:1024C00003E014F8013D01F8013D521EF9D210BDA0
:1024D00011F8014B03F8014B521EF9D210BD10B593
:1024E0000346CCB2042A19D3810717D1194644EA0E
:1024F000042343EA034306E008C1103A08C141F847
:10250000083B41F8043C102AF6D201E008C1121F32
:10251000042AFBD20B4601E003F8014B521EFBD20A
:1025200010BD00002DE9F0410F46064600F05AF8B4
:102530000546C068FFF73EFF041E1CD00021EA6874
:10254000FFF7CDFF26720020607208223946204630
:1025500000F0F4F90948016809B120468847FDF701
:1025600003FE064604F10C01281DFFF7CDFE3046A0
:10257000FDF7FEFD2046BDE8F08100006C00002064
:1025800070B504460A48416809B1204688470020D2
:102590002072FDF7E9FD054604F10C00FFF7EEFEA1
:1025A0002846FDF7E5FD2046BDE87040FFF74CBC2E
:1025B0006C00002070B504460948416809B1204606
:1025C000884700202072FDF7CFFD054604F10C007E
:1025D000FFF7D4FE2846BDE87040FDF7C9BD0000F6
:1025E0006C000020074A002102EB01131B78834294
:1025F00002D102EB01107047491C0729F4DB0020CF
:1026000070470000800000202DE9F0410546174684
:102610000E460846FFF7E6FF0446FFF7EBFB211DD9
:10262000606800E000688842FCD1FFF7F1FB46F0EB
:102630008000287208223946284600F07FF90948B0
:10264000016809B128468847FDF78EFD064605F169
:102650000C01201DFFF758FE3046BDE8F041FDF7A4
:1026600087BD00006C000020007A000601D5012023
:1026700070470020704700002DE9F041FDF774FD20
:10268000134E07467088D8B9B068FEF753F8114961
:10269000401E756851F83040143CAC4210D0307088
:1026A0007460F26812B12146284690470A480078C3
:1026B00004F11C01002805F11C0006D0FDF75BFDAC
:1026C0003846BDE8F041FDF753BDFDF754FDF7E78F
:1026D000F0000020702300204000002010B50446C8
:1026E000FDF742FD024694F834000E4920F00F0039
:1026F000401C84F8340094F8350001EBC00104F16B
:1027000014004B6818604B68A3614860064861611B
:10271000A16B836819438160BDE810401046FDF746
:1027200027BD000070230020F000002070B5054692
:10273000FDF71AFD05F114040146D4E900024260D8
:10274000D4E900021060AC616C6195F83500084A6C
:1027500002EBC0000268824204D10648AB6B82687B
:102760009A438260BDE870400846FDF701BD000055
:1027700070230020F00000202DE9F04116460A46A3
:102780001F4605460221FFF73FFF05F11404AC6127
:102790006C61AE836F720020BDE8F0812DE9F041DD
:1027A00004461548016809B1204688470025FDF711
:1027B000DBFC064604F114000746FFF7C1FD38B103
:1027C000A08B4FF6FF7188420FD2401CA08303E01C
:1027D0003846FFF759FD01253046FDF7C9FC0DB11C
:1027E000FFF74AFF0020BDE8F0813046FDF7C0FC4E
:1027F0006FF00200F7E700007C0000202DE9F341B4
:1028000004462048016809B120468847FDF7ACFC22
:102810000646A08B28B1401EA0833046FDF7A8FCD9
:1028200021E0019838B300F017FA0546002028632C
:10283000627A294604F11400FFF72DFD0198002863
:1028400009DD05F14C0001AA0021074600F032FB2A
:10285000384600F07BFB3046FDF78AFCFFF70CFFA3
:10286000286B002805D10848016809B1204688472F
:102870000020BDE8FC813046FDF77AFC6FF00100D6
:10288000F7E70000740000207800002008B509A0D8
:10289000FFF72AFD0AA0FFF727FD12A000900523ED
:1028A0000122032112A0FFF71FFDBDE8084018A078
:1028B000FFF71ABD0A205C207C202F0A00000000D0
:1028C0002D205254202D2020202020546872656134
:1028D00064204F7065726174696E672053797374F8
:1028E000656D0A004A756C20323820323032310072
:1028F000202F207C205C202020202025642E256491
:102900002E2564206275696C642025730A0000001E
:102910002032303036202D203230323020436F705C
:102920007972696768742062792072742D74687294
:10293000656164207465616D0A00000010B5002AAD
:1029400007D0034611F8014B03F8014B2CB1521E7E
:10295000F8D110BD03F8011B00E00021521EF9D18F
:1029600010BD00000A46C11C10B522F0030321F07F
:102970000301182B21D9A3F118048C421DD35A1A34
:10298000114C183A4FF4F5536261A1600B8000209E
:102990000C32C1E90120488048680844E0600380A7
:1029A00001214180426082600A46002307A1094854
:1029B000FFF7E2FEA068206110BD0146BDE81040AF
:1029C00005A0FFF791BC00004C0000206865617015
:1029D00000000000502300206D656D20696E697451
:1029E0002C206572726F7220626567696E20616467
:1029F000647265737320307825782C20616E6420B2
:102A0000656E642061646472657373203078257824
:102A10000A00000010B50A4A00230A4C53801846E9
:102A200004EBC001401C496009602028F8DB1F202E
:102A3000107003485360103093604060006010BD18
:102A4000F00000207023002010B5074CA068FDF7AF
:102A500071FE0649401E51F8300014386060BDE830
:102A600010401C30FDF7B5BBF000002070230020A3
:102A7000044A002002EBC001401C49600960F9D003
:102A8000704700002001002070472DE9FF4789466C
:102A9000DDE90C76824601461D4690460120FFF78F
:102AA00041FD041E0DD02846FFF784FC60B103965B
:102AB0008DE8A10043464A4651462046FDF7BCFE3C
:102AC000204604B0BDE8F0872046FFF759FD0020FE
:102AD000F7E700F0C7B8000070B513480468FDF7C9
:102AE00043FB05462046FDF708FF2046FFF71EFE84
:102AF000042084F8340004F14C0000F0FFF9204673
:102B0000FFF7B2FD01280BD004F114010748FFF7CD
:102B100002FCFFF7B1FD2846BDE87040FDF728BB79
:102B20002046FFF747FDF4E7F400002000010020F5
:102B3000054D002455F8240000B18047641C042C86
:102B4000F8D300F003F8F4E7C022002070B5FDF7D9
:102B50000BFB05460E480168814214D00168A1F1C3
:102B60001404D1E900024260D1E90002106049601A
:102B700009604869FFF768F92046FFF701FD28461C
:102B8000FDF7F6FAE3E72846BDE87040FDF7F0BA36
:102B9000000100201FB5202308481F22D9008DE81E
:102BA0000F000023064A07A1803800F00FF804B098
:102BB0000248BDE81040803800F074B8C021002001
:102BC000312B00087469646C650000002DE9FF5F1B
:102BD00092460EAA0F4692E870010A46994683462D
:102BE0000121FFF711FD8DE870014B465246394631
:102BF0005846FDF721FE04B0BDE8F09F10B500F087
:102C0000CFF8BDE8104000F02DB8000070B50446C4
:102C100090F8340000F00F00022802D04FF0FF308F
:102C200070BDFDF7A1FA054604F11400FFF7AFFBF4
:102C300004F14C0000F0DAF92846FDF799FA204635
:102C4000FFF74CFD0348416809B120468847002042
:102C500070BD0000080100200148006870470000B6
:102C6000F4000020F1B5FDF77FFA05460C48046832
:102C7000204600F02DF804F14C006A46002106467B
:102C800000F018F9304600F061F92846FDF770FAB7
:102C9000FFF7F2FC206B801C00D120630020F8BD00
:102CA000F400002010B590F83610012280F835109D
:102CB0008A400221826380F83410FFF7A7FF03489F
:102CC000006808B1FFF7D8FC002010BDF400002018
:102CD00070B5044690F8340000F00F00012802D0CF
:102CE0004FF0FF3070BDFDF73FFA05462046FFF775
:102CF0001DFD94F8340020F00F00801C84F834008F
:102D000004F14C0000F072F92846FDF731FA03484F
:102D1000016809B120468847002070BD08010020E5
:102D200010B504466FF00100206304F11400FFF7B2
:102D30002EFB2046FFF7D2FCBDE81040FFF79CBCFD
:102D400070B5FDF711FA06461348046894F834008C
:102D500000F00F00012819D1D4E90501884215D0EF
:102D600004F114000546FFF712FB94F835000B49F7
:102D700001EBC00041680D604168696045602860F2
:102D80003046FDF7F5F9FFF777FC02E03046FDF736
:102D9000EFF9002070BD0000F40000207023002037
:102DA000002802DA4FF0FF3070474FF47A7190FB41
:102DB000F1F290FBF1F301FB130000EB40034A43F7
:102DC000C3EBC0104B1E03EBC00090FBF1F01044AE
:102DD0007047000001480068704700003C00002078
:102DE000094810B50168491C0160FFF735FF816C87
:102DF000491E816403D1416C8164FFF7A1FFBDE8E6
:102E0000104000F003B800003C0000202DE9FC4118
:102E1000CDF804D0CDF800D0FFF7DCFF0546FDF774
:102E2000A3F90746224E38E021486FF000410C30EC
:102E300004686069143C281A884234D2716809B168
:102E4000204688472046FDF74CFD607A810702D472
:102E500020F00100607204F1140188466846FFF713
:102E600061FAD4E907108847FFF7B4FFB168054657
:102E700009B1204688476846FFF769FA68B94046B5
:102E8000FFF78EFA607A810707D5C10705D020F0D9
:102E900001006072204600F059F805480C30FFF739
:102EA00056FA0028C0D03846FDF762F9BDE8FC812B
:102EB0001401002070B515460E460446FDF754F97E
:102EC000052E17D2DFE806F00503080C1100616A31
:102ED0000FE0296861620DE0617A21F0020102E0F1
:102EE000617A41F00201617204E0617AC90700D0A1
:102EF00001212960FDF73CF9002070BD70B5044642
:102F0000FDF732F905462046FDF7EBFC607A20F02C
:102F1000010060722846FDF72BF92046FFF74AFBB7
:102F2000002070BD2DE9F8439046DDE908450A46CA
:102F30001F4606460A21FFF767FB23463A464146ED
:102F400030460095FDF7BAFCBDE8F8832DE9F8435B
:102F50000446FDF709F980462046FDF7C2FC607A79
:102F600020F0010060721F48016809B120468847BF
:102F7000FFF730FF616A1C4F4318A36200226D46C1
:102F800000970CE00668A6EBC2014969994204D09B
:102F9000C91A6FF0004C614508D345F8226007EB71
:102FA000C20155F8220049688842EBD11AB105EBFD
:102FB000820108304860521CF1D00B490C39086876
:102FC000401C086004F114010098FFF7ABF9607A27
:102FD00040F0010060724046FDF7CAF80020BDE8ED
:102FE000F8830000780000202001002070B504461E
:102FF000407AC00713D00B48016809B120468847C2
:10300000FDF7B2F805462046FDF76BFC607A20F02C
:10301000010060722846FDF7ABF8002070BD4FF04C
:10302000FF3070BD7C0000202DE9FF4F83B081464A
:10303000044604981F4609EB00084FF0FF3B4FF091
:10304000200AA04503D2C9F1FF30D8460490FAE027
:10305000252803D044457CD220707AE000250599CC
:10306000491C059108782D2811D02B2812D0202832
:1030700013D0232814D0302815D00A785E46303A71
:103080000A2A13D205A800F077F9064618E045F0A1
:103090001005E4E745F00405E1E745F00805DEE743
:1030A00045F02005DBE745F00105D8E72A2807D1E0
:1030B000491C059140CF002E02DA764245F01005FA
:1030C00005985B4601782E2913D1401C05900178A4
:1030D000A1F130020A2A04D205A800F04DF90346F6
:1030E00004E02A2904D1401C059008CF002B00DA07
:1030F0000023059A00201178682901D06C2902D19B
:10310000521C0846059211784FF00A0C6F297FD0A7
:103110000CDC63291FD004DC252975D058290DD17A
:1031200079E064297CD0692908D179E0702960D0E0
:1031300073292AD0752975D078296ED0444501D2DB
:10314000252020700598641C0178D1B3444500D235
:103150002170641C74E0E80608D45146761E002EE7
:1031600004DD444500D22170641CF7E717F8040B16
:10317000444500D22070514602E0444500D22170FF
:10318000641C761E002EF8DC5AE002CF01B93CA187
:10319000002000E0401CB04202D00A5C002AF9D1B5
:1031A000002B02DD984200DD1846EA060AD452469A
:1031B0003346761E834205DD444500D22270641CEE
:1031C000F6E74CE0002206E0444501D20B7823707C
:1031D000491C521C641C8242F6DB52463146761E64
:1031E00081422DDD444500D22270641CF6E70FE0D9
:1031F0000AE0701C02D1082645F001050096CDE9D1
:10320000013504CF102316E04445A2D2252023E740
:103210004FF0080C06E045F040054FF0100C01E0BF
:1032200045F002056C2801D068281BD004CF009619
:10323000CDE90135634641462046FEF705FD0446CB
:103240000598401C05900598007800287FF400AF91
:10325000049880B1002044450BD220700BE0401E42
:103260000590EDE737F8040B82B2A807DFD512B25C
:10327000DDE708F8010C07B0A4EB0900BDE8F08F0A
:10328000284E554C4C290000002070470020704704
:10329000002070470020704710B5FCF765FFFEF76F
:1032A0003FFEFFF7F3FAFFF7E3FBFFF7B3FBFEF791
:1032B00061FDFFF7E9FBFFF76DFCFFF7C5FB0020A1
:1032C00010BD000070B5054604680BE0A4F11401C0
:1032D00006A0FFF709F82068A84202D004A0FFF773
:1032E00003F82468AC42F1D170BD000025730000E2
:1032F0002F00000010B586B001210420FDF7C8F8AA
:1033000001218803FDF7C4F84FF40070ADF81000F8
:1033100018208DF813000320154C8DF8120004A915
:103320002046FDF73BF82115ADF8101004218DF86B
:10333000131004A92046FDF731F84FF4E130009056
:103340000020ADF80400ADF80600ADF80800ADF8B7
:103350000C000C20074CADF80A0069462046FDF72A
:1033600089F901212046FDF774F906B010BD00006F
:10337000000801400038014010B5024600206FF0FF
:103380002F0407E04B1C1360097800EB800004EB6E
:103390004000084411680B78303B0A2BF2D310BD73
:1033A000054C4FF47A75206880F020012160284692
:1033B000FFF78FFBF7E700000C0C014010B518A0D9
:1033C000FEF792FF1A4C21881AA0FEF78DFF208885
:1033D000C00702D01DA0FEF787FF2088800702D516
:1033E0001DA0FEF781FF2088400702D51DA0FEF733
:1033F0007BFF2088000702D51CA0FEF775FF208800
:10340000C00502D51BA0FEF76FFF2088800502D5FE
:103410001BA0FEF769FFBDE8104004A0FEF764BFE3
:103420007573616765206661756C743A0A00000007
:103430002AED00E05343425F434653525F554653E3
:10344000523A30782530325820000000554E44451D
:1034500046494E5354522000494E56535441544508
:1034600020000000494E5650432000004E4F43506C
:1034700020000000554E414C49474E454420000075
:1034800044495642595A45524F20000010B5FFF7A3
:10349000FDF9002010BD0000010002000100030042
:1034A000010002000100040001000200010003000D
:1034B00001000200010005000100020001000300FC
:1034C00001000200010004000100020001000300ED
:1034D00001000200010006000100020001000300DB
:1034E00001000200010004000100020001000300CD
:1034F00001000200010005000100020001000300BC
:1035000001000200010004000100020001000300AC
:103510000100020001000700010002000100030099
:10352000010002000100040001000200010003008C
:10353000010002000100050001000200010003007B
:10354000010002000100040001000200010003006C
:10355000010002000100060001000200010003005A
:10356000010002000100040001000200010003004C
:10357000010002000100050001000200010003003B
:10358000010002000100040001000200010003002C
:10359000010002000100303132333435363738391A
:1035A00061626364656600303132333435363738F2
:1035B0003941424344454600252D2A2E732070721E
:1035C000692020737461747573202020202020737B
:1035D000702020202020737461636B2073697A65EA
:1035E000206D61782075736564206C656674207445
:1035F00069636B20206572726F720A006C69737464
:103600005F6D656D006C697374206D656D6F7279A7
:1036100020757361676520696E666F726D6174698C
:103620006F6E0068656C6C6F007361792068656C03
:103630006C6F20776F726C640076657273696F6E61
:103640000073686F772052542D546872656164204E
:1036500076657273696F6E20696E666F726D6174E4
:10366000696F6E005F5F636D645F76657273696F2B
:103670006E0073686F772052542D546872656164D0
:103680002076657273696F6E20696E666F726D6108
:1036900074696F6E006C6973745F746872656164DD
:1036A000006C69737420746872656164005F5F63A5
:1036B0006D645F6C6973745F746872656164006CDB
:1036C00069737420746872656164006C6973745FF7
:1036D00073656D006C6973742073656D6170686FDC
:1036E000726520696E2073797374656D005F5F6326
:1036F0006D645F6C6973745F73656D006C6973747E
:103700002073656D6170686F726520696E207379D2
:103710007374656D006C6973745F6576656E7400B3
:103720006C697374206576656E7420696E20737998
:103730007374656D005F5F636D645F6C6973745F64
:103740006576656E74006C697374206576656E7459
:1037500020696E2073797374656D006C6973745F92
:103760006D75746578006C697374206D7574657817
:1037700020696E2073797374656D005F5F636D649B
:103780005F6C6973745F6D75746578006C697374D0
:10379000206D7574657820696E2073797374656D1A
:1037A000006C6973745F6D61696C626F78006C693D
:1037B0007374206D61696C20626F7820696E20736C
:1037C000797374656D005F5F636D645F6C697374BA
:1037D0005F6D61696C626F78006C697374206D61F4
:1037E000696C20626F7820696E2073797374656DDF
:1037F000006C6973745F6D73677175657565006CD6
:10380000697374206D657373616765207175657583
:103810006520696E2073797374656D005F5F636DF9
:10382000645F6C6973745F6D73677175657565004E
:103830006C697374206D657373616765207175655C
:10384000756520696E2073797374656D006C69739A
:10385000745F74696D6572006C6973742074696D4E
:10386000657220696E2073797374656D005F5F63A4
:103870006D645F6C6973745F74696D6572006C6907
:1038800073742074696D657220696E207379737426
:10389000656D006C697374006C69737420616C6C85
:1038A0002073796D626F6C20696E20737973746513
:1038B0006D005F5F636D645F68656C700052542DCE
:1038C000546872656164207368656C6C2068656C0F
:1038D000702E005F5F636D645F7073004C6973747A
:1038E000207468726561647320696E207468652055
:1038F00073797374656D2E005F5F636D645F6672CC
:1039000065650053686F7720746865206D656D6F1D
:10391000727920757361676520696E20746865200F
:1039200073797374656D2E00953200088D3200082E
:1039300089320008950A000891320008FC35000819
:1039400005360008B11100082336000829360008A2
:103950002D0E000839360008413600088D34000865
:1039600064360008723600088D3400089536000869
:10397000A136000861150008AD360008BF36000802
:1039800061150008CB360008D43600084114000841
:10399000ED360008FC360008411400081537000811
:1039A00020370008B10E00083537000846370008F8
:1039B000B10E00085B37000866370008491300089D
:1039C0007B3700088C37000849130008A13700082E
:1039D000AE37000871100008C6370008D937000854
:1039E00071100008F1370008FF3700081D120008A9
:1039F0001C380008303800081D1200084D38000837
:103A000058380008191700086D3800087E3800087B
:103A10001917000893380008983800084D0E000860
:103A2000B2380008BD3800088D1A0008D3380008E5
:103A3000DC3800080B0A0008F838000803390008D1
:103A4000010A0008643A000800000020400100005C
:103A500038030008BC3A000840010020B8270000E5
:103A6000880700081184A24A04680D0102030406B5
:103A7000070809020406081069140158320122845B
:103A80002A2004328032021A940C29043220320394
:103A90001AA40C2904322429AD1AB40C29042920B3
:103AA00032051AC40C2904323032061AD40C290407
:0C3AB000323C320A1AE40C290402532CA8
:0400000508000131BD
:00000001FF
